:020000040800F2
:100000007806002089010008CD010008CF01000812
:10001000D3010008D7010008DB0100080000000040
:10002000000000000000000000000000DF010008E8
:10003000E101000800000000E3010008E5010008FC
:10004000A3010008A3010008A3010008A301000800
:10005000A3010008A3010008A3010008A3010008F0
:10006000A3010008A3010008A3010008A3010008E0
:10007000A3010008A3010008A3010008A3010008D0
:10008000A3010008A3010008A3010008A3010008C0
:10009000A3010008A3010008A3010008A3010008B0
:1000A000A3010008A3010008A3010008A3010008A0
:1000B000A3010008A3010008A3010008A301000890
:1000C000A3010008A3010008A3010008A301000880
:1000D000A3010008A3010008A3010008A301000870
:1000E000A3010008A3010008A301000800F002F822
:1000F00000F03CF80AA090E8000C82448344AAF186
:100100000107DA4501D100F031F8AFF2090EBAE883
:100110000F0013F0010F18BFFB1A43F0010318473B
:100120000C0300002C030000103A24BF78C878C1EB
:10013000FAD8520724BF30C830C144BF04680C60ED
:10014000704700000023002400250026103A28BF35
:1001500078C1FBD8520728BF30C148BF0B60704739
:100160001FB5AFF300801FBD10B510BD00F023F91F
:100170001146FFF7F5FF00F027F800F041F9FFF70F
:10018000F3FF00F047F9000009488047094800479D
:10019000FEE7FEE7FEE7FEE7FEE7FEE7FEE7FEE737
:1001A000FEE7FEE704480549054A064B7047000094
:1001B000B1020008ED000008780000207806002059
:1001C000780200207802002000BFFEE7704700BFE1
:1001D000FEE700BFFEE700BFFEE700BFFEE7704797
:1001E000704770477047000000200021674A12687E
:1001F00042F48032654B1A6000BF644A126802F410
:100200000031401C11B9B0F5A06FF6D15F4A1268F9
:1002100012F4003F01D0012100E00021012942D168
:100220005B4A126842F01002594B1A601A46126873
:1002300022F003021A601A46126842F002021A60A3
:10024000524A5268514B5A601A4652685A601A46CE
:10025000526842F480625A601A46526822F47C1254
:100260005A601A46526842F4E8125A601A461268F6
:1002700042F080721A6000BF444A126812F0007F98
:10028000FAD0424A526822F00302404B5A601A46A2
:10029000526842F002025A6000BF3C4A526802F0C3
:1002A0000C02082AF9D1704710B5FFF79DFF10BD69
:1002B00010B53648006840F001003449086008462F
:1002C000406834490840314948600846006832496E
:1002D00008402E4908600846006820F48020086025
:1002E0000846406820F4FE0048604FF41F00886014
:1002F000FFF7DAFF4FF000602849086010BD10B525
:10030000002000210022214B5B6803F00C0020B18B
:10031000042806D0082828D107E0214B214C23606F
:1003200027E01F4B1F4C236023E0184B5B6803F44E
:100330007011164B5B6803F48032022303EB91418A
:1003400022B9194B4B43174C23600DE00F4B5B68F0
:1003500013F4003F04D0144B4B43124C236003E0D2
:100360000F4B4B430F4C236003E00D4B0D4C2360B0
:1003700000BF00BF054B5B68C3F303130B4CE05C8D
:10038000084B1B68C340074C236010BD001002409F
:10039000002002400000FFF8FFFFF6FE08ED00E03D
:1003A00000127A000000002000093D000400002037
:1003B000704770477047754600F028F8AE46050054
:1003C0006946534620F00700854618B020B5FFF770
:1003D000E9FEBDE820404FF000064FF000074FF067
:1003E00000084FF0000B21F00701AC46ACE8C00953
:1003F000ACE8C009ACE8C009ACE8C0098D4670475C
:100400000446AFF300802046FFF7B9FE004870476E
:100410001400002003494FF01800ABBE70470000E5
:100420000900000026000200704700004C0400088C
:1004300000000020140000002801000860040008EB
:1004400014000020640600004401000800A24A04D1
:100450000000000000000000010203040607080974
:040000050800018965
:00000001FF
