:020000040800F2
:100000005004002001010008A9020008AB0200080A
:10001000AF020008B3020008B702000800000000A9
:10002000000000000000000000000000BB0200080B
:10003000BD02000800000000BF020008C102000865
:100040001B0100081B0100081B0100081B01000820
:100050001B0100081B0100081B0100081B01000810
:100060001B0100081B0100081B0100081B01000800
:100070001B0100081B0100081B0100081B010008F0
:100080001B0100081B0100081B0100081B010008E0
:100090001B0100081B0100081B0100081B010008D0
:1000A0001B0100081B0100081B0100081B010008C0
:1000B0001B0100081B0100081B0100081B010008B0
:1000C0001B0100081B0100081B0100081B010008A0
:1000D0001B0100081B0100081B0100081B01000890
:1000E0001B0100081B0100081B010008DFF80CD0F1
:1000F00001F038FB004800472501000850040020AB
:100100000648804706480047FEE7FEE7FEE7FEE7B1
:10011000FEE7FEE7FEE7FEE7FEE7FEE7391600082A
:10012000ED00000810B500F0EBF900F05DFC4E4961
:1001300008600846006840F0C000C0434B490860B2
:100140004948006860F0C000401C1DD000F0A3FAD0
:10015000474908704548006828B14448006800F0E5
:1001600057FB4349087000BF4248006800F4E06054
:1001700041490843001D4FF0E021C1F80C0DBFF3C9
:10018000408F00BF00BFFEE704203C4908603648AE
:10019000006810F0C00F56D0352000F054FC00204D
:1001A000374908600EE036490968364A131403FBE4
:1001B000012000F0EBF92E49087031480068401C1E
:1001C0002F4908602E4800682C490968884203D2EC
:1001D000274800780428E6D02A482B4908600CE01C
:1001E0002A4801882848006800F0D0FA20490870A1
:1001F00025480068801C2449086023480068244979
:10020000884203D21A4800780428E9D01D481E49C4
:1002100008600EE01C48006800881C490988884274
:1002200002D000201B49087017480068801C16493E
:100230000860154800681649884207D215480078BA
:100240000028E7D102E000201249087000F03AF8D7
:1002500011481249086006E00C4802880F480168FE
:100260000FA001F091FAF7E70C0000201000002029
:10027000140000200CED00E00000FA05180000203A
:10028000000000200060000804000020080000209A
:100290000080000815000020000C00081C00002051
:1002A00025752F2564000000704700BFFEE700BFE2
:1002B000FEE700BFFEE700BFFEE7704770477047EC
:1002C0007047000000B585B0012144F2040000F041
:1002D000E9FE4FF40070ADF8100018208DF81300FF
:1002E00003208DF8120004A9744800F031FC4FF48B
:1002F0008060ADF8100004208DF8130004A96F4849
:1003000000F026FC4FF4E13000900020ADF804002E
:10031000ADF80600ADF80800ADF80C000C20ADF803
:100320000A006946664800F062FF0121644800F057
:10033000E9FF05B000BD70B504460D46E1B2604866
:1003400001F04FF800BF40215D4801F0B8F80128E6
:10035000F9D1204670BDF0B5034600270E460A2AA3
:1003600003D0002030700846F0BD33B9302006F8C5
:10037000010B002030700846F6E7002B03DA2D2031
:1003800006F8010B5B4242F210740DE093FBF4F5AA
:1003900005B937B105F1300006F8010B05FB143340
:1003A00001270A2094FBF0F4002CEFDC00203070D1
:1003B0000846D9E70FB470B586B004460CA8019082
:1003C00073E00B9800785C281CD10B98401C0B90B4
:1003D00000786E2809D072280FD10D21204601F037
:1003E00000F80B98401C0B900BE00A21204600F00F
:1003F000F8FF0B98401C0B9003E00B98401C0B90EF
:1004000000BF4BE00B980078252840D10B98401C8A
:100410000B900078642818D0732833D1019820C835
:1004200001900BE02978204600F0DBFF00BF40215F
:10043000204601F044F80028F9D06D1C28780028E7
:10044000F0D10B98401C0B9020E0019840C801901F
:100450000A2202A93046FFF77EFF02AD0BE02978A1
:10046000204600F0BEFF00BF4021204601F027F8E3
:100470000028F9D06D1C28780028F0D10B98401C7A
:100480000B9003E00B98401C0B9000BF06E00B980C
:1004900010F8011B0B90204600F0A3FF00BF402185
:1004A000204601F00CF80028F9D00B9800780028BD
:1004B00087D106B070BC5DF814FB00000008014055
:1004C000003801400021FF4A116801F03801014362
:1004D00011607047FB49096821F00801F94A116071
:1004E00011460968014311607047F649096821F017
:1004F0001001F44A11601146096801431160704708
:10050000F148F0494860F14848607047EE48ED49CD
:100510004860EE4848607047EA48006940F0800053
:10052000E84908617047E748006940F08000E54904
:10053000086170470420E349C96801F001010129FD
:1005400001D101200EE0DF49C96811F0040F01D08C
:10055000022007E0DB49C96811F0100F01D0032029
:1005600000E00420704700B502460423FFF7E2FFD5
:10057000034603E0FFF7DEFF0346521E012B01D1C5
:10058000002AF7D102B90523184600BD30B504464C
:1005900004254FF43020FFF7E6FF0546042D17D160
:1005A000C848006940F00200C64908610846446135
:1005B000006940F0400008614FF43020FFF7D3FF9E
:1005C0000546C048006941F6FD710840BD49086113
:1005D000284630BD10B504244FF43020FFF7C3FF88
:1005E0000446042C16D1B748006940F00400B54910
:1005F00008610846006940F0400008614FF430206F
:10060000FFF7B1FF0446AF48006941F6FB710840AF
:10061000AC490861204610BD00B502460423FFF72F
:1006200089FF034603E0FFF785FF0346521E012BB7
:1006300001D1002AF7D102B90523184600BD10B533
:1006400004244FF43020FFF7E7FF0446042C16D1B2
:100650009C48006940F004009A4908610846006916
:1006600040F0400008614FF43020FFF7D5FF04460A
:100670009448006941F6FB710840924908612046A0
:1006800010BD00208F49C96911F0020F01D001206F
:1006900000E00020704730B5A5240425FFF7F1FFE6
:1006A00000B100244FF43020FFF75DFF0546042D14
:1006B0003AD1854883498860844888600846006943
:1006C00040F0200008610846006940F040000861E1
:1006D0004FF43020FFF747FF0546042D1BD1794822
:1006E000006941F6DF7108407649086108460069F3
:1006F00040F01000086176480480E802FFF733FFFD
:100700000546052D10D06F48006941F6EF7108408D
:100710006C49086108E0052D06D06A48006941F679
:10072000EF71084067490861284630BDF0B50446BE
:100730000D4604260027F002FFF715FF0646042E9B
:1007400022D16048006940F001005E4908612580BF
:10075000F002FFF708FF0646042E0ED1A71C280C56
:100760003880F002FFF7FFFE06465648006941F662
:10077000FE7108405349086106E05248006941F69D
:10078000FE7108404F4908613046F0BD70B504461F
:100790000D460426F002FFF7E6FE0646042E11D1B0
:1007A0004848006940F00100464908612580F00290
:1007B000FFF7D9FE06464348006941F6FE7108403E
:1007C00040490861304670BD70B504460D460426A8
:1007D000F002FFF7C8FE0646042E17D13A48394901
:1007E00088603A4888600846006940F01000086157
:1007F0002580F002FFF7B7FE0646052E06D03148E9
:10080000006941F6EF7108402E490861304670BD1D
:100810002DE9F04304464FF6FF752E462F46A846B5
:100820004FF00409E443E5B2C4F30726C4F30747D5
:100830004FEA14684FF40050FFF795FE8146B9F176
:10084000040F50D120481F4988602048886008461E
:10085000006940F010000861FF2D07D01C480830E7
:1008600005804FF40050FFF77EFE8146B9F1040F7A
:1008700009D1FF2E07D016480A3006804FF40050E9
:10088000FFF771FE8146B9F1040F09D1FF2F07D0A0
:100890000F480C3007804FF40050FFF764FE81468C
:1008A000B9F1040F0AD1B8F1FF0F07D00948A0F839
:1008B0000E884FF40050FFF756FE8146B9F1050F40
:1008C00011D009E00020024023016745AB89EFCD3C
:1008D00000F8FF1F00F0FF1F6948006941F6EF7143
:1008E0000840674908614846BDE8F08330B50446D2
:1008F00004254FF43020FFF736FE0546042D41D184
:1009000060485F498860604888600846006940F038
:10091000200008610846006940F0400008614FF47B
:100920003020FFF720FE0546042D22D154480069EF
:1009300041F6DF710840524908610846006940F0FD
:10094000100008611CB100205049088002E0A52079
:100950004E4908804FF43020FFF705FE0546052D6F
:1009600010D04748006941F6EF71084044490861DA
:1009700008E0052D06D04248006941F6DF710840C5
:100980003F490861284630BDF0B504460D4616467D
:1009900004273C483A4988603B488860F802FFF7E2
:1009A000E2FD0746042F19D13548006940F01000D8
:1009B0003349086146F0F800284320433349891C35
:1009C0000880F802FFF7CFFD0746052F06D02C4818
:1009D000006941F6EF710840294908613846F0BDC9
:1009E0002748C069800870472548006A7047002082
:1009F0002349096811F0200F01D0012000E00020F8
:100A0000704729B11E4A126902431D4B1A6104E066
:100A10001B4A126982431A4B1A6170470146002033
:100A2000012908D1164AD26912F0010F01D0012024
:100A300008E0002006E0124AD2680A4201D00120F4
:100A400000E0002070470E49C860704704200C4940
:100A5000C96801F00101012901D101200EE0084916
:100A6000C96811F0040F01D0022007E00449C968E9
:100A700011F0100F01D0032000E0042070470000A7
:100A80000020024023016745AB89EFCD00F8FF1F2E
:100A900010B50446C748844208D10121042000F063
:100AA0001BFB0021042000F017FB46E0C2488442F3
:100AB00008D10121082000F00FFB0021082000F0E0
:100AC0000BFB3AE0BD48844208D10121102000F020
:100AD00003FB0021102000F0FFFA2EE0B84884420A
:100AE00008D10121202000F0F7FA0021202000F099
:100AF000F3FA22E0B348844208D10121402000F0FB
:100B0000EBFA0021402000F0E7FA16E0AE488442FC
:100B100008D10121802000F0DFFA0021802000F0C0
:100B2000DBFA0AE0A948844207D10121801500F0D0
:100B3000D3FA0021A01500F0CFFA10BD10B50121A5
:100B4000084600F0C9FA0021012000F0C5FA10BDE6
:100B5000F0B500220023002400250026002791F88C
:100B600003C00CF00F0291F803C01CF0100F03D06B
:100B700091F802C04CEA0202B1F800C01CF0FF0F6D
:100B800031D0066800242BE04FF0010C0CFA04F57C
:100B9000B1F800C00CEA0503AB4220D1A5004FF02C
:100BA0000F0C0CFA05F7BE4302FA05FC4CEA0606E8
:100BB00091F803C0BCF1280F06D14FF0010C0CFADC
:100BC00004FCC0F814C00AE091F803C0BCF1480F5F
:100BD00005D14FF0010C0CFA04FCC0F810C0641CE5
:100BE000082CD1D30660B1F800C0BCF1FF0F34DD92
:100BF000466800242EE004F1080C4FF0010E0EFAB6
:100C00000CF5B1F800C00CEA0503AB4221D1A500F8
:100C10004FF00F0C0CFA05F7BE4302FA05FC4CEA44
:100C2000060691F803C0BCF1280F05D104F1080CA9
:100C30000EFA0CFEC0F814E091F803C0BCF1480FA6
:100C400007D104F1080C4FF0010E0EFA0CFEC0F8AB
:100C500010E0641C082CCED34660F0BD4FF6FF7147
:100C60000180022181700421C1707047024600207A
:100C700093680B4201D0012000E00020704701463C
:100C8000886880B2704702460020D3680B4201D0CA
:100C9000012000E0002070470146C86880B270471C
:100CA00001617047416170470AB1016100E0416133
:100CB0007047C16070474FF480320A43826181619E
:100CC00082618269826970470022414B1A684FF63F
:100CD00080731A4042EA00120A433D4B1A60704783
:100CE0003C49C8617047F0B500220023002400256C
:100CF00000F00046B6F1004F02D1354EF46901E034
:100D0000334E7468C0F3034582B200F44016B6F562
:100D1000401F08D124F070642D4E766826F070666E
:100D20002B4F7E6012E000F48016B6F5801F06D1CE
:100D3000032606FA05F39C4344F0706406E0460D72
:100D4000360102FA06F6B44344F0706421B1460D50
:100D5000360102FA06F6344300F00046B6F1004FC1
:100D600002D11B4EF46101E0194E7460F0BD30B544
:100D700000228B071C0F0F2303FA04F2144B0833D5
:100D80008C1053F8244094438D1043F825408C1068
:100D900053F824308C07240F00FA04F423430C4C3E
:100DA00008348D1044F8253030BD0A49DC31086024
:100DB0007047000000080140000C01400010014095
:100DC0000014014000180140001C014000200140B7
:100DD0000000014000002042DB48006840F00100B4
:100DE000D949086008464068D8490840D649486053
:100DF00008460068D6490840D3490860084600689C
:100E000020F4802008600846406820F4FE00486016
:100E10004FF41F0088607047CB49096821F4803186
:100E2000C94A11601146096821F480211160B0F5AA
:100E3000803F03D0B0F5802F0ED106E0C24909688B
:100E400041F48031C04A116007E0BF49096841F4AC
:100E5000A021BD4A116000E000BF00BF704710B57F
:100E600001460022002300204A11012A02D1B64C7B
:100E7000236806E0022A02D1B34C236A01E0B24C97
:100E8000636A01F01F02012494401C4201D001203A
:100E900000E0002010BD70B500240025002600BF32
:100EA0003120FFF7DCFF0646641CB4F5A06F01D0CB
:100EB000002EF5D03120FFF7D2FF08B1012500E068
:100EC0000025284670BD00219F4A116821F0F801D5
:100ED00041EAC001116070479E49086070470022D6
:100EE000994B5A6822F47C1240EA01031A43964B4C
:100EF0005A6070479749086670470021924A5168C6
:100F000021F003010143516070478F48406800F0B1
:100F10000C00704700218C4A516821F0F001014318
:100F2000516070470021884A516821F4E061014313
:100F3000516070470021844A516821F4605141EAB0
:100F4000C0015160704729B17F4A527A02437E4BFB
:100F50005A7206E07C4A527AC343DBB21A407A4B9B
:100F60005A7270477B49D831086070470021764A31
:100F7000516821F440410143516070470021724A99
:100F800020321170704A82F82010012802D0042803
:100F90000AD104E001216C4A2032117005E00521DC
:100FA000694A2032117000E000BF00BF70476A49F3
:100FB000086070476449096A0143634A11627047D7
:100FC000654944390860704730B50021002200238C
:100FD00000245D4D6D6805F00C0121B1042905D098
:100FE000082923D105E05D4D056022E05B4D0560D9
:100FF0001FE0554D6D6805F47012534D6D6805F492
:101000008033022505EB92421BB9554D55430560CF
:101010000BE04D4D6D6815F4003F03D0504D554326
:10102000056002E04D4D5543056002E04B4D056003
:1010300000BF00BF444D6D6805F0F0010909494D3E
:101040006C5C0568E54045603F4D6D6805F4E06106
:10105000090A444D6C5C4568E54085603A4D6D6811
:1010600005F46051C90A3F4D6C5C4568E540C560B8
:10107000354D6D6805F44041890B3A4D10356C5C77
:10108000C568B5FBF4F5056130BD29B12E4A52693A
:1010900002432D4B5A6104E02B4A526982432A4B8A
:1010A0005A61704729B1284A92690243264B9A61D6
:1010B00004E0254A92698243234B9A61704729B123
:1010C000214AD2690243204BDA6104E01E4AD26908
:1010D00082431D4BDA61704729B11B4AD268024333
:1010E000194BDA6004E0184AD2688243164BDA6082
:1010F000704729B1144A12690243134B1A6104E084
:10110000114A12698243104B1A61704712494039E3
:10111000086070470F49C86470470B49C871704731
:101120000948406A40F080700749486270470146AC
:101130000020054A92680A4201D0012000E0002008
:101140007047014988727047001002400000FFF8A4
:10115000FFFFF6FE000042428004424200127A0085
:1011600000093D002000002010B50446FB488442E1
:1011700009D101218803FFF7AFFF00214FF4804020
:10118000FFF7AAFF32E0F648844209D10121480462
:10119000FFF7AFFF00214FF40030FFF7AAFF25E073
:1011A000F048844209D101218804FFF7A2FF002101
:1011B0004FF48020FFF79DFF18E0EB48844209D1EF
:1011C0000121C804FFF795FF00214FF40020FFF72D
:1011D00090FF0BE0E548844208D101210805FFF7A4
:1011E00088FF00214FF48010FFF783FF10BD2DE929
:1011F000F04786B004460D460026002700BFB146E2
:10120000B246A88900B100BFA246268A4CF6FF70FC
:101210000640E88806432682A6894EF6F31006406B
:10122000A88829890843698908430643A681A68AB4
:101230004FF6FF400640A8890643A68201A8FFF7A3
:10124000C3FE5446C548824501D1049F00E0039F78
:10125000A08910F4004F08D007EBC70000EB07107F
:1012600029684900B0FBF1F807E007EBC70000EB85
:10127000071029688900B0FBF1F86420B8FBF0F092
:1012800006013009642101FB1089A08910F4004F88
:1012900009D0322101EBC9006421B0FBF1F000F06C
:1012A0000700064308E0322101EB09106421B0FB7E
:1012B000F1F000F00F000643268106B0BDE8F0878C
:1012C0004FF41651016000218180C18001810C2101
:1012D000418100218181704710B50022028A4FF2BE
:1012E000FF031A400B884C8823438C882343CC8807
:1012F00023431A43028210BD002101804180818076
:10130000C180704721B1828942F40052828104E099
:1013100082894DF6FF731A4082817047F0B5002430
:10132000002500260023A1F510676A3F00D100BF09
:101330000346C1F3421401F01F05012707FA05F621
:10134000012C01D10C3304E0022C01D1103300E058
:1013500014331AB11F6837431F6002E01F68B74398
:101360001F60F0BD10B51AB1838A0B43838204E07D
:10137000838ACC43A4B22340838210BD028A4FF6F5
:10138000F0731A400282028A0A43028270478289FD
:101390004FF2FF731A40828182890A43828170472B
:1013A00021B1828942F00202828104E082894FF6F3
:1013B000FD731A4082817047028A4FF6DF731A402C
:1013C0000282028A0A430282704721B1028A42F4F1
:1013D0008042028204E0028A4BF6FF731A400282C6
:1013E0007047C1F308028280704701468888C0F3C5
:1013F00008007047818941F0010181817047028BAB
:10140000D2B20283028B42EA012202837047028B2E
:1014100002F47F420283028B0A430283704721B1A8
:10142000828A42F02002828204E0828A4FF6DF73D1
:101430001A408282704721B1828A42F01002828271
:1014400004E0828A4FF6EF731A408282704721B11E
:10145000828A42F00802828204E0828A4FF6F773A1
:101460001A408282704721B1828942F4004282810F
:1014700003E08289C2F30E028281704721B1828A21
:1014800042F40062828204E0828A4FF2FF731A40C3
:1014900082827047828A4FF6FB731A408282828A68
:1014A0000A438282704721B1828A42F0020282821C
:1014B00004E0828A4FF6FD731A408282704702462A
:1014C0000020B1F5007F00D100BF13880B4201D08E
:1014D000012000E00020704701F40072B2F5007FA7
:1014E00000D100BFCA430280704770B50246002396
:1014F000002400250020A1F510666A3E00D100BF3F
:10150000C1F3421501F01F04012606FA04F4012D6F
:1015100002D19689344006E0022D02D1168A344069
:1015200001E0968A34400B12012606FA03F316886E
:10153000334014B10BB1012000E0002070BD10B5A4
:1015400000220023A1F510646A3C00D100BF0A12FA
:1015500001249440A3B2DC43048010BD0038014054
:101560000044004000480040004C00400050004053
:1015700000200021674A126842F48032654B1A60ED
:1015800000BF644A126802F40031401C11B9B0F582
:10159000A06FF6D15F4A126812F4003F01D001211A
:1015A00000E00021012942D15B4A126842F010029A
:1015B000594B1A601A46126822F003021A601A4642
:1015C000126842F002021A60524A5268514B5A6045
:1015D0001A4652685A601A46526842F480625A604B
:1015E0001A46526822F47C125A601A46526842F433
:1015F000E8125A601A46126842F080721A6000BF00
:10160000444A126812F0007FFAD0424A526822F02F
:101610000302404B5A601A46526842F002025A6076
:1016200000BF3C4A526802F00C02082AF9D1704708
:1016300010B5FFF79DFF10BD10B53648006840F0AB
:10164000010034490860084640683449084031497F
:10165000486008460068324908402E49086008463C
:10166000006820F4802008600846406820F4FE00EE
:1016700048604FF41F008860FFF7DAFF4FF000600A
:101680002849086010BD10B5002000210022214B20
:101690005B6803F00C0020B1042806D0082828D18C
:1016A00007E0214B214C236027E01F4B1F4C236098
:1016B00023E0184B5B6803F47011164B5B6803F46E
:1016C0008032022303EB914122B9194B4B43174C53
:1016D00023600DE00F4B5B6813F4003F04D0144B04
:1016E0004B43124C236003E00F4B4B430F4C2360E2
:1016F00003E00D4B0D4C236000BF00BF054B5B6842
:10170000C3F303130B4CE05C084B1B68C340074C4E
:10171000236010BD00100240002002400000FFF8CE
:10172000FFFFF6FE08ED00E000127A003400002012
:1017300000093D003800002030B50B46014600206E
:101740002022012409E021FA02F59D4205D303FA83
:1017500002F5491B04FA02F52844151EA2F1010204
:10176000F1DC30BD064C074D06E0E06840F00103B7
:1017700094E8070098471034AC42F6D3FEF7BAFC61
:1017800014190008341900080FB410B503A9044B4C
:10179000044A029800F018F810BC5DF814FB000031
:1017A000370300084800002002E008C8121F08C1E3
:1017B000002AFAD170477047002001E001C1121FD2
:1017C000002AFBD1704700002DE9FF4F89B0044685
:1017D0009A4600258FE0252875D10027641C4C4AC5
:1017E000B84601212378203B01FA03F0104202D0D1
:1017F0000743641CF6E720782E281AD114F8010F4D
:1018000047F004072A280DD10A98641C50F8048B6D
:101810000A900EE008EB880002EB400001EB0008A4
:10182000641C01E06FF02F022178A1F1300009283B
:10183000F0D92078002862D0642809D0692807D020
:10184000752860D10A994FF00A0901C90A9114E07C
:101850000A994FF00A0901C90A91002802DA4042A8
:101860002D2102E0390504D52B218DF8001001212E
:1018700004E0F90701D02021F7E700218B4609AEEB
:1018800005E04946FFF758FF303106F8011D0028F2
:10189000F7D101A8801B00F12009780701D44FF08F
:1018A00001080020C84501DDA8EB0900804600279B
:1018B00006E01DF8070052460B9990476D1C7F1CEF
:1018C0005F45F6DB05E01EE0302052460B9990475D
:1018D0006D1CB8F10000A8F10108F5DC05E016F870
:1018E000010B52460B9990476D1CB9F10000A9F10C
:1018F0000109F4DC641C207800287FF46CAF2846D2
:101900000DB0BDE8F08F52460B9990476D1CF1E782
:101910000928010034190008000000204C000000D4
:10192000A8170008801900084C00002004040000DB
:10193000B817000800000000000000005317000066
:10194000FFFFFFFF00000000040100000000000096
:101950000000000000000000010203040102030473
:10196000060708090204060800A24A040000000055
:10197000000000000102030406070809000000003F
:0400000508000101ED
:00000001FF
