:020000040800F2
:100000003004002001010008790200087B0200088A
:100010007F02000883020008870200080000000039
:100020000000000000000000000000008B0200083B
:100030008D020008000000008F02000891020008F5
:100040001B0100081B0100081B01000893020008A7
:100050001B0100081B0100081B0100081B01000810
:100060001B0100081B0100081B0100081B01000800
:100070001B0100081B0100081B0100081B010008F0
:100080001B0100081B0100081B0100081B010008E0
:100090001B0100081B0100081B0100081B010008D0
:1000A0001B0100081B0100081B0100081B010008C0
:1000B0001B0100081B0100081B0100081B010008B0
:1000C0001B0100081B0100081B0100081B010008A0
:1000D0001B0100081B0100081B0100081B01000890
:1000E0001B0100081B0100081B010008DFF80CD0F1
:1000F00001F09AFB00480047250100083004002069
:100100000648804706480047FEE7FEE7FEE7FEE7B1
:10011000FEE7FEE7FEE7FEE7FEE7FEE7FD16000866
:10012000ED00000810B500F031FA00F0CFF81EA085
:1001300001F08CFB042000F0C8FBA0F52541A53997
:1001400012D021A001F082FB25A001F07FFB00F07E
:10015000D2F82BA001F07AFB00F06BF94AF2A5511E
:10016000042000F0ACFB19E07B2000F028FE18B161
:1001700029A001F06BFB06E07A2000F020FE10B110
:100180002DA001F063FB34A001F060FB01F008F842
:100190000121084600F098FF00F0FAFF00F070FF20
:1001A00000F076F900BFFEE70D0A2054686973205D
:1001B00069732061205254432064656D6F2E2E2E8A
:1001C0002E2E2E200D0A00000D0A54686973206936
:1001D000732061205254432064656D6F210D0A0025
:1001E0000D0A0A20525443206E6F742079657420E2
:1001F000636F6E666967757265642E2E2E2E000021
:100200000D0A2052544320636F6E666967757265EC
:10021000642E2E2E2E0000000D0A0A20506F7765E6
:1002200072204F6E205265736574206F6363757220
:100230007265642E2E2E2E000D0A0A2045787465F4
:10024000726E616C205265736574206F63637572A2
:100250007265642E2E2E2E000D0A204E6F206E65C4
:10026000656420746F20636F6E66696775726520C0
:100270005254432E2E2E2E00704700BFFEE700BFC3
:10028000FEE700BFFEE700BFFEE77047704770471C
:10029000704710B5012000F0A9FF88B1012000F0DF
:1002A000B6FF01200749086000F072FF00F030FF40
:1002B0000549884204D1002000F034FF00F068FFB7
:1002C00010BD0000000000208051010008B54FF46F
:1002D000C06000F05BFA03208DF8000001208DF86B
:1002E000010000208DF8020001208DF8030068460F
:1002F00000F051FA08BD10B501214FF0C05000F0D8
:100300008EFE012000F0B9FC00F0B0FA012000F0F0
:10031000E5FD00BF412000F052FD0028FAD04FF467
:10032000807000F0F7FD012000F0FAFD00F038FFCA
:1003300000F02EFF0121084600F0C6FE00F028FF65
:1003400047F6FF7000F0FCFE00F022FF10BD7CB508
:1003500005460024684600210A4606C01BE000BF8F
:100360002021544801F00DF90028F9D0514801F03E
:100370009EF82146641C4DF82100601E5DF82000A7
:10038000302804D3601E5DF82000392803D94AA024
:1003900001F05CFA641E022CE1D301983038009918
:1003A000303901EB810100EB4104AC4205D929460B
:1003B0004CA001F04BFAFF207CBDE0B2FCE770B529
:1003C000FF24FF25FF26534801F040FA52A001F018
:1003D0003DFA03E01720FFF7BAFF0446FF2CF9D0DF
:1003E000214653A001F032FA53A001F02FFA03E0A6
:1003F0003B20FFF7ACFF0546FF2DF9D029464CA066
:1004000001F024FA52A001F021FA03E03B20FFF7AB
:100410009EFF0646FF2EF9D0314645A001F016FAA0
:100420004FF461606043C5EB051100EB810030447F
:1004300070BD10B500F0ACFEFFF7C1FF044600F040
:1004400071FE00F0A5FE10BD2DE9F0410446002527
:10045000002600274FF46160B4FBF0F5B4FBF0F127
:1004600000FB11403C21B0FBF1F64FF46160B4FB9E
:10047000F0F100FB11403C21B0FBF1F201FB12074F
:100480003B463246294638A001F0E0F9BDE8F0814C
:1004900010B53CA001F0DAF90BE03B4800680128F8
:1004A00007D100F035FE0446FFF7CEFF00203649A5
:1004B0000860F2E7003801400A0D506C6561736511
:1004C00020656E7465722076616C6964206E756D4E
:1004D000626572206265747765656E203020616E9A
:1004E000642039000A0D506C6561736520656E7477
:1004F00065722076616C6964206E756D626572202C
:100500006265747765656E203020616E64202564B5
:1005100000000000D81900080D0A2020506C656109
:1005200073652053657420486F7572730000000076
:100530003A202025640000000D0A2020506C6561DF
:10054000736520536574204D696E75746573000082
:100550000D0A2020506C656173652053657420532B
:1005600065636F6E647300002054696D653A2025E1
:10057000302E32643A25302E32643A25302E3264E1
:100580000D0000000A0D00000000002000B585B03D
:10059000012144F2040000F035FD4FF40070ADF885
:1005A000100018208DF8130003208DF8120004A904
:1005B000744800F013FA4FF48060ADF81000042086
:1005C0008DF8130004A96F4800F008FA4FF4E130E9
:1005D00000900020ADF80400ADF80600ADF808006A
:1005E000ADF80C000C20ADF80A006946664800F032
:1005F00060FE0121644800F0E7FE05B000BD70B563
:1006000004460D46E1B2604800F04DFF00BF4021B6
:100610005D4800F0B6FF0128F9D1204670BDF0B565
:10062000034600270E460A2A03D0002030700846F1
:10063000F0BD33B9302006F8010B002030700846B9
:10064000F6E7002B03DA2D2006F8010B5B4242F29D
:1006500010740DE093FBF4F505B937B105F13000E6
:1006600006F8010B05FB143301270A2094FBF0F474
:10067000002CEFDC002030700846D9E70FB470B5CD
:1006800086B004460CA8019073E00B9800785C28B3
:100690001CD10B98401C0B9000786E2809D0722852
:1006A0000FD10D21204600F0FEFE0B98401C0B9050
:1006B0000BE00A21204600F0F6FE0B98401C0B9040
:1006C00003E00B98401C0B9000BF4BE00B980078A8
:1006D000252840D10B98401C0B900078642818D036
:1006E000732833D1019820C801900BE02978204667
:1006F00000F0D9FE00BF4021204600F042FF002854
:10070000F9D06D1C28780028F0D10B98401C0B9074
:1007100020E0019840C801900A2202A93046FFF764
:100720007EFF02AD0BE02978204600F0BCFE00BF42
:100730004021204600F025FF0028F9D06D1C2878C4
:100740000028F0D10B98401C0B9003E00B98401C44
:100750000B9000BF06E00B9810F8011B0B90204691
:1007600000F0A1FE00BF4021204600F00AFF002853
:10077000F9D00B980078002887D106B070BC5DF8DE
:1007800014FB0000000801400038014032490143D9
:10079000324A1160704770B5002100230F22C478DF
:1007A0000CB32E4C246804F4E064C4F5E064210A20
:1007B000C1F10403CA40447804FA03F18478144078
:1007C00021430901264C0678A155047804F01F0541
:1007D0000124AC4005786D114FF0E02606EB85054D
:1007E000C5F8004109E0047804F01F040125A54084
:1007F0001C4C0678761144F8265070BD1A4A0A40FF
:100800000243164B1B1F1A60704741B1134A121D59
:10081000126802434FF0E023C3F8102D07E00F4A9F
:10082000121D126882434FF0E023C3F8102D704769
:10083000042808D14FF0E021096941F004014FF08C
:10084000E022116107E04FF0E021096921F0040185
:100850004FF0E022116170470000FA050CED00E056
:1008600000E400E080E100E080FFFF1F10B5012000
:1008700000F0FCFB002000F0F9FB10BD24490860EB
:1008800070472349091F0860704721498431086077
:10089000704700211F4A11884FF67F4211400143E3
:1008A0001D4AA2F82C1C704700211A4A11884FF6E5
:1008B000807211400143184AA2F82C1C7047002294
:1008C000144A2C3A02441160704702460021114933
:1008D0002C391144088870470D489C300068C0B21C
:1008E00070470C480830008840F001000A49A1F820
:1008F000340C70470648A0300068C0B27047054805
:100900000830008840F002000349A1F8340C704719
:1009100004860D422C6C00400060004010B5044677
:10092000C748844208D10121042000F085FB002142
:10093000042000F081FB46E0C248844208D1012136
:10094000082000F079FB0021082000F075FB3AE058
:10095000BD48844208D10121102000F06DFB002128
:10096000102000F069FB2EE0B848844208D1012134
:10097000202000F061FB0021202000F05DFB22E040
:10098000B348844208D10121402000F055FB0021EA
:10099000402000F051FB16E0AE48844208D101210E
:1009A000802000F049FB0021802000F045FB0AE098
:1009B000A948844207D10121801500F03DFB0021A8
:1009C000A01500F039FB10BD10B50121084600F05C
:1009D00033FB0021012000F02FFB10BDF0B50022F9
:1009E0000023002400250026002791F803C00CF006
:1009F0000F0291F803C01CF0100F03D091F802C051
:100A00004CEA0202B1F800C01CF0FF0F31D00668BA
:100A100000242BE04FF0010C0CFA04F5B1F800C0F3
:100A20000CEA0503AB4220D1A5004FF00F0C0CFAE5
:100A300005F7BE4302FA05FC4CEA060691F803C02E
:100A4000BCF1280F06D14FF0010C0CFA04FCC0F8E1
:100A500014C00AE091F803C0BCF1480F05D14FF073
:100A6000010C0CFA04FCC0F810C0641C082CD1D393
:100A70000660B1F800C0BCF1FF0F34DD4668002409
:100A80002EE004F1080C4FF0010E0EFA0CF5B1F84F
:100A900000C00CEA0503AB4221D1A5004FF00F0CBA
:100AA0000CFA05F7BE4302FA05FC4CEA060691F87B
:100AB00003C0BCF1280F05D104F1080C0EFA0CFE9E
:100AC000C0F814E091F803C0BCF1480F07D104F15D
:100AD000080C4FF0010E0EFA0CFEC0F810E0641C7A
:100AE000082CCED34660F0BD4FF6FF710180022185
:100AF00081700421C17070470246002093680B4248
:100B000001D0012000E0002070470146886880B2D3
:100B1000704702460020D3680B4201D0012000E05C
:100B2000002070470146C86880B270470161704775
:100B3000416170470AB1016100E041617047C160E5
:100B400070474FF480320A43826181618261826919
:100B5000826970470022414B1A684FF680731A4031
:100B600042EA00120A433D4B1A6070473C49C86193
:100B70007047F0B5002200230024002500F0004655
:100B8000B6F1004F02D1354EF46901E0334E74687E
:100B9000C0F3034582B200F44016B6F5401F08D1F9
:100BA00024F070642D4E766826F070662B4F7E60C0
:100BB00012E000F48016B6F5801F06D1032606FA6F
:100BC00005F39C4344F0706406E0460D360102FADA
:100BD00006F6B44344F0706421B1460D360102FAC2
:100BE00006F6344300F00046B6F1004F02D11B4E2A
:100BF000F46101E0194E7460F0BD30B500228B073E
:100C00001C0F0F2303FA04F2144B08338C1053F813
:100C1000244094438D1043F825408C1053F8243021
:100C20008C07240F00FA04F423430C4C08348D1075
:100C300044F8253030BD0A49DC31086070470000B7
:100C400000080140000C0140001001400014014068
:100C500000180140001C014000200140000001403C
:100C60000000204210B50121080700F0F2F9002130
:100C70004FF0805000F0EDF910BD2C49086270472C
:100C80002A49086170470021294A116821F0E001D2
:100C90000143116070472549A0310860704710B5C5
:100CA0000022234B1A6822F0030202431A60214BF0
:100CB0001B6843F004034FF0E024C4F8103D012901
:100CC00001D130BF00E020BF1A4B1B6823F00403A2
:100CD0004FF0E024C4F8103D10BD1548006840F006
:100CE0000400134908600846006840F002000860EC
:100CF0001048006840F004004FF0E021C1F8100DEA
:100D000000BF00BF30BF704701460020084A52684C
:100D10000A4201D0012000E0002070470449096820
:100D200041EA8001024A11607047000000000E4253
:100D30000070004010ED00E0DB48006840F001006A
:100D4000D949086008464068D8490840D6494860F3
:100D500008460068D6490840D3490860084600683C
:100D600020F4802008600846406820F4FE004860B7
:100D70004FF41F0088607047CB49096821F4803127
:100D8000C94A11601146096821F480211160B0F54B
:100D9000803F03D0B0F5802F0ED106E0C24909682C
:100DA00041F48031C04A116007E0BF49096841F44D
:100DB000A021BD4A116000E000BF00BF704710B520
:100DC00001460022002300204A11012A02D1B64C1C
:100DD000236806E0022A02D1B34C236A01E0B24C38
:100DE000636A01F01F02012494401C4201D00120DB
:100DF00000E0002010BD70B500240025002600BFD3
:100E00003120FFF7DCFF0646641CB4F5A06F01D06B
:100E1000002EF5D03120FFF7D2FF08B1012500E008
:100E20000025284670BD00219F4A116821F0F80175
:100E300041EAC001116070479E4908607047002276
:100E4000994B5A6822F47C1240EA01031A43964BEC
:100E50005A6070479749086670470021924A516866
:100E600021F003010143516070478F48406800F052
:100E70000C00704700218C4A516821F0F0010143B9
:100E8000516070470021884A516821F4E0610143B4
:100E9000516070470021844A516821F4605141EA51
:100EA000C0015160704729B17F4A527A02437E4B9C
:100EB0005A7206E07C4A527AC343DBB21A407A4B3C
:100EC0005A7270477B49D831086070470021764AD2
:100ED000516821F440410143516070470021724A3A
:100EE00020321170704A82F82010012802D00428A4
:100EF0000AD104E001216C4A2032117005E005217D
:100F0000694A2032117000E000BF00BF70476A4993
:100F1000086070476449096A0143634A1162704777
:100F2000654944390860704730B50021002200232C
:100F300000245D4D6D6805F00C0121B1042905D038
:100F4000082923D105E05D4D056022E05B4D056079
:100F50001FE0554D6D6805F47012534D6D6805F432
:100F60008033022505EB92421BB9554D5543056070
:100F70000BE04D4D6D6815F4003F03D0504D5543C7
:100F8000056002E04D4D5543056002E04B4D0560A4
:100F900000BF00BF444D6D6805F0F0010909494DDF
:100FA0006C5C0568E54045603F4D6D6805F4E061A7
:100FB000090A444D6C5C4568E54085603A4D6D68B2
:100FC00005F46051C90A3F4D6C5C4568E540C56059
:100FD000354D6D6805F44041890B3A4D10356C5C18
:100FE000C568B5FBF4F5056130BD29B12E4A5269DB
:100FF00002432D4B5A6104E02B4A526982432A4B2B
:101000005A61704729B1284A92690243264B9A6176
:1010100004E0254A92698243234B9A61704729B1C3
:10102000214AD2690243204BDA6104E01E4AD269A8
:1010300082431D4BDA61704729B11B4AD2680243D3
:10104000194BDA6004E0184AD2688243164BDA6022
:10105000704729B1144A12690243134B1A6104E024
:10106000114A12698243104B1A6170471249403984
:10107000086070470F49C86470470B49C8717047D2
:101080000948406A40F0807007494862704701464D
:101090000020054A92680A4201D0012000E00020A9
:1010A0007047014988727047001002400000FFF845
:1010B000FFFFF6FE000042428004424200127A0026
:1010C00000093D000400002031B1564A1288024355
:1010D000554BA3F8002807E0524A1288C3439BB23D
:1010E0001A40514BA3F8002870474E48001D008855
:1010F00040F010004C49A1F8040870474948001D11
:1011000000884FF6EF7108404749A1F8040870477E
:10111000002144481C3001884348B0F8180841EACF
:101120000040704700B50246FFF7DFFF100C3D4955
:10113000183108803C49A1F81C28FFF7DFFF00BDEB
:1011400000B50246FFF7D1FFC2F30340354908312D
:1011500008803549A1F80C28FFF7D0FF00BD00B585
:101160000246FFF7C2FF100C2E49203108802E499D
:10117000A1F82428FFF7C2FF00BD00202949103143
:1011800009880907080B2849B1F814180843704763
:1011900000BF2448001D008810F0200FF9D07047D0
:1011A0002048001D00884FF6F77108401E49A1F83D
:1011B000040800BF1B48001D008810F0080FF9D07C
:1011C000704701460020174A121D12880A4201D0BA
:1011D000012000E0002070471249091D0988C24320
:1011E00092B21140104AA2F804187047014600203C
:1011F0000C4A121D12880A40D0B20B4AB2F80028DD
:101200000A4202D008B1012000E0002070470549E1
:10121000091D0988C24392B21140034AA2F804187A
:1012200070470000002800400020004010B5044630
:10123000FB48844209D101218803FFF7FDFE00210C
:101240004FF48040FFF7F8FE32E0F648844209D1BF
:1012500001214804FFF7FDFE00214FF40030FFF7A5
:10126000F8FE25E0F048844209D101218804FFF707
:10127000F0FE00214FF48020FFF7EBFE18E0EB4872
:10128000844209D10121C804FFF7E3FE00214FF495
:101290000020FFF7DEFE0BE0E548844208D1012183
:1012A0000805FFF7D6FE00214FF48010FFF7D1FEAE
:1012B00010BD2DE9F04786B004460D4600260027F4
:1012C00000BFB146B246A88900B100BFA246268A37
:1012D0004CF6FF700640E88806432682A6894EF643
:1012E000F3100640A8882989084369890843064302
:1012F000A681A68A4FF6FF400640A8890643A6822B
:1013000001A8FFF711FE5446C548824501D1049F4C
:1013100000E0039FA08910F4004F08D007EBC7003E
:1013200000EB071029684900B0FBF1F807E007EB74
:10133000C70000EB071029688900B0FBF1F86420B2
:10134000B8FBF0F006013009642101FB1089A08987
:1013500010F4004F09D0322101EBC9006421B0FB29
:10136000F1F000F00700064308E0322101EB09101C
:101370006421B0FBF1F000F00F000643268106B0B7
:10138000BDE8F0874FF41651016000218180C180D3
:1013900001810C21418100218181704710B500221B
:1013A000028A4FF2FF031A400B884C8823438C8833
:1013B0002343CC8823431A43028210BD00210180BD
:1013C00041808180C180704721B1828942F40052FE
:1013D000828104E082894DF6FF731A408281704752
:1013E000F0B50024002500260023A1F510676A3F10
:1013F00000D100BF0346C1F3421401F01F050127CD
:1014000007FA05F6012C01D10C3304E0022C01D1BE
:10141000103300E014331AB11F6837431F6002E035
:101420001F68B7431F60F0BD10B51AB1838A0B4324
:10143000838204E0838ACC43A4B22340838210BD1C
:10144000028A4FF6F0731A400282028A0A4302822D
:10145000704782894FF2FF731A40828182890A4362
:101460008281704721B1828942F00202828104E0C8
:1014700082894FF6FD731A4082817047028A4FF6C7
:10148000DF731A400282028A0A430282704721B146
:10149000028A42F48042028204E0028A4BF6FF7321
:1014A0001A4002827047C1F30802828070470146E9
:1014B0008888C0F308007047818941F0010181816B
:1014C0007047028BD2B20283028B42EA012202836E
:1014D0007047028B02F47F420283028B0A4302832D
:1014E000704721B1828A42F02002828204E0828A1F
:1014F0004FF6DF731A408282704721B1828A42F030
:101500001002828204E0828A4FF6EF731A408282D0
:10151000704721B1828A42F00802828204E0828A06
:101520004FF6F7731A408282704721B1828942F4E4
:101530000042828103E08289C2F30E0282817047F9
:1015400021B1828A42F40062828204E0828A4FF2F0
:10155000FF731A4082827047828A4FF6FB731A40EB
:101560008282828A0A438282704721B1828A42F053
:101570000202828204E0828A4FF6FD731A40828260
:10158000704702460020B1F5007F00D100BF1388EC
:101590000B4201D0012000E00020704701F40072EE
:1015A000B2F5007F00D100BFCA430280704770B51A
:1015B00002460023002400250020A1F510666A3EA3
:1015C00000D100BFC1F3421501F01F04012606FA45
:1015D00004F4012D02D19689344006E0022D02D197
:1015E000168A344001E0968A34400B12012606FA2E
:1015F00003F31688334014B10BB1012000E0002042
:1016000070BD10B500220023A1F510646A3C00D122
:1016100000BF0A1201249440A3B2DC43048010BD31
:10162000003801400044004000480040004C0040A9
:101630000050004000200021674A126842F48032C6
:10164000654B1A6000BF644A126802F40031401C06
:1016500011B9B0F5A06FF6D15F4A126812F4003FDD
:1016600001D0012100E00021012942D15B4A12682A
:1016700042F01002594B1A601A46126822F0030217
:101680001A601A46126842F002021A60524A526800
:10169000514B5A601A4652685A601A46526842F4D0
:1016A00080625A601A46526822F47C125A601A46C6
:1016B000526842F4E8125A601A46126842F0807288
:1016C0001A6000BF444A126812F0007FFAD0424A02
:1016D000526822F00302404B5A601A46526842F0A8
:1016E00002025A6000BF3C4A526802F00C02082A0B
:1016F000F9D1704710B5FFF79DFF10BD10B5364802
:10170000006840F0010034490860084640683449E8
:1017100008403149486008460068324908402E496F
:1017200008600846006820F4802008600846406889
:1017300020F4FE0048604FF41F008860FFF7DAFFD6
:101740004FF000602849086010BD10B5002000214E
:101750000022214B5B6803F00C0020B1042806D066
:10176000082828D107E0214B214C236027E01F4B9C
:101770001F4C236023E0184B5B6803F47011164B79
:101780005B6803F48032022303EB914122B9194BC9
:101790004B43174C23600DE00F4B5B6813F4003F85
:1017A00004D0144B4B43124C236003E00F4B4B43CC
:1017B0000F4C236003E00D4B0D4C236000BF00BFB6
:1017C000054B5B68C3F303130B4CE05C084B1B68D1
:1017D000C340074C236010BD0010024000200240AF
:1017E0000000FFF8FFFFF6FE08ED00E000127A00AF
:1017F0001800002000093D001C00002030B50B46F9
:10180000014600202022012409E021FA02F59D4230
:1018100005D303FA02F5491B04FA02F52844151E04
:10182000A2F10102F1DC30BD064C074D06E0E06894
:1018300040F0010394E8070098471034AC42F6D317
:10184000FEF758FC1C1A00083C1A00080FB410B52B
:1018500003A9044B044A029800F018F810BC5DF884
:1018600014FB0000FF0500082C00002002E008C85F
:10187000121F08C1002AFAD170477047002001E00A
:1018800001C1121F002AFBD1704700002DE9FF4F54
:1018900089B004469A4600258FE0252875D1002797
:1018A000641C4C4AB84601212378203B01FA03F01E
:1018B000104202D00743641CF6E720782E281AD184
:1018C00014F8010F47F004072A280DD10A98641C68
:1018D00050F8048B0A900EE008EB880002EB400001
:1018E00001EB0008641C01E06FF02F022178A1F1E8
:1018F00030000928F0D92078002862D0642809D067
:10190000692807D0752860D10A994FF00A0901C9E2
:101910000A9114E00A994FF00A0901C90A910028B6
:1019200002DA40422D2102E0390504D52B218DF841
:101930000010012104E0F90701D02021F7E7002180
:101940008B4609AE05E04946FFF758FF303106F8EF
:10195000011D0028F7D101A8801B00F1200978079C
:1019600001D44FF001080020C84501DDA8EB0900B3
:101970008046002706E01DF8070052460B99904765
:101980006D1C7F1C5F45F6DB05E01EE030205246F3
:101990000B9990476D1CB8F10000A8F10108F5DC27
:1019A00005E016F8010B52460B9990476D1CB9F1F2
:1019B0000000A9F10109F4DC641C207800287FF400
:1019C0006CAF28460DB0BDE8F08F52460B9990479A
:1019D0006D1CF1E7092801000D0A3D3D3D3D3D3DEF
:1019E0003D3D3D3D3D3D3D3D54696D652053657434
:1019F00074696E67733D3D3D3D3D3D3D3D3D3D3D23
:101A00003D3D3D3D3D3D3D3D3D3D3D3D3D3D3D3D06
:101A10003D3D3D3D3D3D3D3D3D3D00003C1A000806
:101A200000000020300000006C1800086C1A00084C
:101A300030000020000400007C18000800000000B6
:101A40000000000001020304010203040607080964
:101A50000204060800A24A04000000000000000082
:0C1A600001020304060708090000000052
:0400000508000101ED
:00000001FF
