:020000040800F2
:100000003804002001010008910100089301000854
:10001000970100089B0100089F01000800000000F4
:10002000000000000000000000000000A301000824
:10003000A501000800000000A7010008A9010008B0
:100040001B0100081B0100081B0100081B01000820
:100050001B0100081B0100081B0100081B01000810
:100060001B0100081B0100081B0100081B01000800
:100070001B0100081B0100081B0100081B010008F0
:100080001B0100081B0100081B0100081B010008E0
:10009000AB0100081B0100081B0100081B01000840
:1000A0001B0100081B0100081B0100081B010008C0
:1000B0001B0100081B0100081B0100081B010008B0
:1000C0001B0100081B0100081B0100081B010008A0
:1000D0001B0100081B0100081B0100081B01000890
:1000E0001B0100081B0100081B010008DFF80CD0F1
:1000F00001F0FCFE004800472501000838040020FC
:100100000648804706480047FEE7FEE7FEE7FEE7B1
:10011000FEE7FEE7FEE7FEE7FEE7FEE7ED1D00086F
:10012000ED00000810B500F079F800F091F807A094
:1001300001F0EEFE00F0C1F909A001F0E9FE00F0C7
:10014000DCFA0DA001F0E4FE00BFFEE70D0A20433B
:10015000414EBBD8BBB7B2E2CAD4200D0A000000A2
:100160000D0A2043414EBBD8BBB7B2E2CAD4B3F5A7
:10017000CABCBBAF200D0A000D0A2043414EBBD8BC
:10018000BBB7B2E2CAD4BDE1CAF8200D0A00000034
:10019000704700BFFEE700BFFEE700BFFEE700BFFD
:1001A000FEE7704770477047704700B585B0002084
:1001B000009001908DF808008DF80A008DF813006A
:1001C0008DF80B0000218DF80C106A46114800F0E4
:1001D000CAFD0198A0F59051343915D19DF8080059
:1001E000042811D19DF80A0002280DD19DF80C00B9
:1001F0009DF80B1040EA0120A0F55E41CA3903D1F9
:1002000001200549086002E000200349086005B0AC
:1002100000BD0000006400400000002008B501217E
:10022000042001F019FBF020ADF8000010208DF83B
:10023000030003208DF802006946044801F062F8CB
:10024000F021024801F006F908BD00000008014055
:1002500000B585B0012144F2040001F0FDFA4FF42D
:100260000070ADF8100018208DF8130003208DF8F1
:10027000120004A9744801F045F84FF48060ADF80D
:10028000100004208DF8130004A96F4801F03AF81B
:100290004FF4E13000900020ADF80400ADF8060006
:1002A000ADF80800ADF80C000C20ADF80A00694666
:1002B000664801F076FB0121644801F0FDFB05B0C2
:1002C00000BD70B504460D46E1B2604801F063FC24
:1002D00000BF40215D4801F0CCFC0128F9D1204647
:1002E00070BDF0B5034600270E460A2A03D0002051
:1002F00030700846F0BD33B9302006F8010B0020FD
:1003000030700846F6E7002B03DA2D2006F8010BC3
:100310005B4242F210740DE093FBF4F505B937B17E
:1003200005F1300006F8010B05FB143301270A2004
:1003300094FBF0F4002CEFDC002030700846D9E785
:100340000FB470B586B004460CA8019073E00B980A
:1003500000785C281CD10B98401C0B9000786E280C
:1003600009D072280FD10D21204601F014FC0B9802
:10037000401C0B900BE00A21204601F00CFC0B986E
:10038000401C0B9003E00B98401C0B9000BF4BE00F
:100390000B980078252840D10B98401C0B900078D2
:1003A000642818D0732833D1019820C801900BE03D
:1003B0002978204601F0EFFB00BF4021204601F0E4
:1003C00058FC0028F9D06D1C28780028F0D10B9833
:1003D000401C0B9020E0019840C801900A2202A91D
:1003E0003046FFF77EFF02AD0BE02978204601F092
:1003F000D2FB00BF4021204601F03BFC0028F9D091
:100400006D1C28780028F0D10B98401C0B9003E05D
:100410000B98401C0B9000BF06E00B9810F8011BD6
:100420000B90204601F0B7FB00BF4021204601F0B1
:1004300020FC0028F9D00B980078002887D106B05E
:1004400070BC5DF814FB000000080140003801405A
:1004500008B514208DF8000000208DF801008DF8FB
:10046000020001208DF80300684600F07CF908BD09
:1004700008B50121092001F0EFF90121480601F03A
:10048000F8F94FF48070ADF8000048208DF80300B3
:100490006946AD4800F036FF4FF40070ADF800003B
:1004A00018208DF803006946A74800F02BFF0121B2
:1004B0004FF4EA1000F0F1FF08BD10B5FFF7C8FFD8
:1004C000FFF7D6FF10BD30B591B0002400259F483E
:1004D00000F0B4F90EA800F0DBFA00208DF83E0021
:1004E0008DF83F008DF840008DF841008DF84200F6
:1004F0008DF8430001208DF83A0000208DF83B0074
:1005000007208DF83C0006208DF83D000520ADF851
:1005100038000EA98D4800F0AAF900208DF83200AD
:100520008DF8330001208DF834000020ADF828004C
:10053000ADF82A00ADF82C00ADF82E00ADF8300073
:1005400001208DF835000AA800F01FFA112005904F
:1005500000208DF81D008DF81C0002208DF81E0073
:10056000CA208DF81F00FE2105A8017305A9774850
:1005700000F002FB054600BF00E0641C29467348FA
:1005800000F094FB012801D0FF2CF6D1002400E0FC
:10059000641C00216D4800F069FC012801DAFF2C81
:1005A000F6D1002000908DF808008DF80A008DF833
:1005B0000B0000218DF80C106A46644800F0D3FB54
:1005C0000098112802D0002011B030BD9DF808001D
:1005D00008B10020F8E79DF80A00022801D00020A9
:1005E000F2E79DF80C009DF80B1040EA0120A0F501
:1005F0004A41FE3901D00020E6E70120E4E710B5CA
:100600008CB00024514800F019F909A800F040FA14
:1006100000208DF82A008DF82B008DF82C008DF825
:100620002D008DF82E008DF82F0001208DF826006A
:1006300000208DF8270007208DF8280006208DF86F
:1006400029000120ADF8240009A9404800F00FF965
:1006500001208DF81E0000208DF81F0001208DF86C
:1006600020000020ADF81400ADF81600ADF8180019
:10067000ADF81A00ADF81C0001208DF8210005A886
:1006800000F083F901220221304800F086FC0020AE
:10069000009041F23420019004208DF808000020E1
:1006A0008DF8090002208DF80A00DE208DF80B007D
:1006B000CA218DF80C106946244800F05DFAFF202D
:1006C0002349086000BF00E0641C21480068FF283F
:1006D00003D140F6FF708442F6D3A4F57060FF3872
:1006E00001D11B49086000220221184800F055FC86
:1006F00017480068C0B20CB010BD10B5FFF7E3FE9C
:10070000144908700846007828B900BF1021124823
:1007100000F0A0FE04E000BF10210F4800F09CFE96
:10072000FFF76DFF0B4908700846007828B900BF35
:100730002021094800F08EFE04E000BF2021064879
:1007400000F08AFE10BD0000000C01400064004073
:10075000000000200400002000080140324901434D
:10076000324A1160704770B5002100230F22C4780F
:100770000CB32E4C246804F4E064C4F5E064210A50
:10078000C1F10403CA40447804FA03F184781440A8
:1007900021430901264C0678A155047804F01F0571
:1007A0000124AC4005786D114FF0E02606EB85057D
:1007B000C5F8004109E0047804F01F040125A540B4
:1007C0001C4C0678761144F8265070BD1A4A0A402F
:1007D0000243164B1B1F1A60704741B1134A121D8A
:1007E000126802434FF0E023C3F8102D07E00F4AD0
:1007F000121D126882434FF0E023C3F8102D70479A
:10080000042808D14FF0E021096941F004014FF0BC
:10081000E022116107E04FF0E021096921F00401B5
:100820004FF0E022116170470000FA050CED00E086
:1008300000E400E080E100E080FFFF1F10B5044607
:10084000FF48844209D10121480601F02CF800211B
:100850004FF0007001F027F808E00121880601F050
:1008600022F800214FF0806001F01DF810BD30B576
:100870000346002000221C6824F002041C601C684F
:1008800044F001041C6000E0521C5C6804F00104A8
:10089000012C03D0A2F57F44FF3CF5D15C6804F045
:1008A0000104012C01D000206EE08C79012C04D1D0
:1008B0001C6844F080041C6003E01C6824F0800481
:1008C0001C60CC79012C04D11C6844F040041C60ED
:1008D00003E01C6824F040041C600C7A012C04D155
:1008E0001C6844F020041C6003E01C6824F0200411
:1008F0001C604C7A012C04D11C6844F010041C606C
:1009000003E01C6824F010041C608C7A012C04D1D4
:100910001C6844F008041C6003E01C6824F0080410
:100920001C60CC7A012C04D11C6844F004041C60C7
:1009300003E01C6824F004041C608C78A407CD78C4
:1009400044EA05640D7944EA05444D7944EA0554C6
:100950000D886D1E2C43DC611C6824F001041C60B2
:10096000002200E0521C5C6804F00104012C03D159
:10097000A2F57F44FF3CF5D15C6804F00104012C32
:1009800001D1002000E0012030BD10B50021837AA4
:10099000012202FA03F1AB4A126842F00102AA4BAB
:1009A000C3F800261A46D2F81C268A43A54B1C33EE
:1009B0001A60027BCAB9A34A0C3212688A43A14B5F
:1009C0000C331A604288C38842EA03439D4A40328E
:1009D000847A42F834300288838842EA0343994A91
:1009E0004032847A02EBC4025360027B012A19D19F
:1009F000944A0C3212680A43924B0C331A604288B4
:100A0000038842EA03438F4A4032847A42F8343002
:100A1000C288838842EA03438A4A4032847A02EBDE
:100A2000C4025360C27A3AB9864A121D12688A43D8
:100A3000854BC3F8042606E0824A121D12680A4359
:100A4000814BC3F80426028932B97E4A14321268F7
:100A50008A437D4BC3F814260289012A06D1794ABC
:100A6000143212680A43784BC3F81426427B012AD9
:100A700006D1744A1C3212680A43734BC3F81C2611
:100A8000704A126822F001026F4BC3F8002610BDB5
:100A900000218171C171017241728172C1728170D4
:100AA000C170032101710221417101210180704750
:100AB0006449096841F00101634AC2F800166149BE
:100AC000096843F60E7291435F4AC2F80016114658
:100AD000D1F8001641EA0021C2F800161146D1F8FB
:100AE000001621F00101C2F80016704721B102681A
:100AF00042F48032026003E0026822F48032026035
:100B00007047E1B1026842F0800202604FF4C272A5
:100B1000125842F480734FF4C27213504FF4CA72E9
:100B2000125842F480734FF4CA7213504FF4D272C9
:100B3000125842F480734FF4D27213501BE00268D3
:100B400022F0800202604FF4C272125822F48073C5
:100B50004FF4C27213504FF4CA72125822F48073C9
:100B60004FF4CA7213504FF4D272125822F48073A9
:100B70004FF4D2721350704710B5024600209368AC
:100B800003F08063B3F1806F00D110E0936803F04D
:100B90000063B3F1006F01D1012008E0936803F016
:100BA0008053B3F1805F01D1022000E004200428CB
:100BB0007BD002F5C07303EB00131B6803F0010444
:100BC00002F5C07303EB00131C600B7A7BB94B7A00
:100BD0000C6843EA445402F5C07303EB00131B682E
:100BE0001C4302F5C07303EB00131C6010E00B7A8A
:100BF0004C6843EAC4044B7A1C4302F5C07303EB10
:100C000000131B681C4302F5C07303EB00131C6048
:100C10008B7A03F00F038B7202F5C07303EB0013A2
:100C20005B6823F00F0402F5C07303EB00135C60F4
:100C300002F5C07303EB00135C688B7A1C4305E07C
:100C400000640040006600400060004002F5C07390
:100C500003EB00135C608B7B1C064B7B44EA034474
:100C60000B7B44EA0323CC7A234302F5C07404EBE4
:100C70000014A3608B7C1C064B7C44EA03440B7C71
:100C800044EA0323CC7B234302F5C07404EB001435
:100C9000E36002F5C07303EB00131B6843F001042B
:100CA00002F5C07303EB00131C6010BD10B50246C3
:100CB000002321B1012907D002290FD109E0906852
:100CC000FE4C00EA04030BE09068FD4C00EA0403CC
:100CD00006E09068FB4C00EA040301E0002300BF3B
:100CE00000BFF94C181BA34216D007DC83B16FF08C
:100CF000806018180ED0022818D111E0B0F5007FDE
:100D000010D0F24C001909D0B0F5003F0ED10BE025
:100D100002230DE000230BE0002309E0002307E09D
:100D2000012305E0012303E0012301E0002300BFCC
:100D300000BFD8B210BD21B1012907D002290FD1BF
:100D400009E0826842F0800282600AE0826842F430
:100D50000042826005E0826842F40002826000E0A6
:100D600000BF00BF704710B500F5D87303EB011347
:100D70001B6803F004031372137A53B900F5D87398
:100D800003EB01131B6840F2FF7404EA5353136032
:100D900009E000F5D87303EB01131B686FF06044A2
:100DA00004EAD303536000F5D87303EB01131B6807
:100DB00003F00203537200F5D87303EB01135B6871
:100DC00003F00F03937200F5D87303EB01135B6814
:100DD0001B0AD37400F5D87303EB01139B68D3721D
:100DE00000F5D87303EB01139B681C0A147300F51C
:100DF000D87303EB01139B681C0C547300F5D87374
:100E000003EB01139B681B0E937300F5D87303EB80
:100E10000113DB68D37300F5D87303EB0113DB68B0
:100E20001C0A147400F5D87303EB0113DB681C0C67
:100E3000547400F5D87303EB0113DB681B0E937435
:100E400021B9C36843F02003C36003E0036943F0A2
:100E50002003036110BD21B9C26842F02002C260C4
:100E600003E0026942F0200202617047024600205E
:100E700019B9D36803F0030006E0012903D113690F
:100E800003F0030000E00020704710B50246002088
:100E90004FF6FF73B9B9146824F0020444F001045A
:100EA000146000E05B1E546804F00304012C01D0C0
:100EB000002BF7D1546804F00304012C01D000206A
:100EC00032E0012030E0012913D1146824F003043A
:100ED000146000E05B1E546814F0030F01D0002B77
:100EE000F8D1546814F0030F01D000201CE0012059
:100EF0001AE0022917D1146824F0010444F0020416
:100F0000146000E05B1E546804F00304022C01D05E
:100F1000002BF7D1546804F00304022C01D0002008
:100F200002E0012000E0002010BD014600200A6818
:100F300022F0010242F002020A604A6802F0030253
:100F4000022A00D10120704701464FF6FF720020AF
:100F50000B6823F002030B6000E0521E4B6803F0A5
:100F60000203022B01D1002AF7D14B6803F00203E0
:100F7000022B00D001207047014600208A6902F050
:100F800070007047014600208A69100E70470146C4
:100F900000208A69C2F3074070471AB143690B43C6
:100FA000436102E043698B434361704710B50246D9
:100FB000002011F4700F08D09369C1F31304234289
:100FC00001D001202DE000202BE011F0807F08D01F
:100FD0005368C1F31304234201D0012021E0002013
:100FE0001FE011F0006F08D09368C1F3130423428F
:100FF00001D0012015E0002013E011F0007F08D09F
:10100000D368C1F31304234201D0012009E000207A
:1010100007E01369C1F31304234201D0012000E06B
:10102000002010BD00222A4B994202D10023836187
:1010300011E0C1F3130211F0007F01D0C2600AE099
:1010400011F0806F01D0026105E011F0006F01D056
:10105000826000E042607047024600200A4201D0F0
:10106000012000E00020704770B504460D460026C0
:101070006069284271D0B5F5807F68D010DC082DFA
:1010800041D006DC012D2CD0022D30D0042D7FD193
:1010900033E0102D3DD0202D41D0402D78D144E0BB
:1010A000B5F5004F6ED015DCB5F5007F56D0B5F51F
:1010B000806F59D0B5F5006F6AD15DE00300000480
:1010C0000003000800000310000100080001FFF702
:1010D0007000F030B5F5803F2DD0B5F5003F57D109
:1010E0002FE0A0685649FFF7B7FF064652E0E068D8
:1010F0000321FFF7B1FF06464CE0E0680821FFF747
:10110000ABFF064646E0E0681021FFF7A5FF064664
:1011100040E020690321FFF79FFF06463AE020697F
:101120000821FFF799FF064634E020691021FFF7F8
:1011300093FF06462EE060680821FFF78DFF064604
:1011400028E060681021FFF787FF064622E0A069CB
:101150000121FFF781FF06461CE01CE0A069022187
:10116000FFF77AFF064615E0A0690421FFF774FF38
:1011700006460FE00CE005E0A0697021FFF76CFF68
:10118000064607E060680421FFF766FF064601E0B7
:10119000002600BF00E00026304670BDB1F5007F9C
:1011A0003AD00FDC202928D006DC01291CD00429E4
:1011B0001DD0082940D11DE0402921D0B1F5807F04
:1011C0003AD126E0B1F5004F31D006DCB1F5806FA1
:1011D00025D0B1F5006F2FD124E0B1F5803F12D0BA
:1011E000B1F5003F28D111E0154A826025E00822C0
:1011F000C26022E01022C2601FE0082202611CE0EF
:101200001022026119E00822426016E010224260BA
:1012100013E00422426010E0042242600DE0042248
:1012200042600AE0002282610422426005E000225E
:1012300082610422426000E000BF00BF70470000EE
:101240000101010010B50446C748844208D10121BC
:10125000042000F01BFB0021042000F017FB46E0F7
:10126000C248844208D10121082000F00FFB002170
:10127000082000F00BFB3AE0BD48844208D1012170
:10128000102000F003FB0021102000F0FFFA2EE0F8
:10129000B848844208D10121202000F0F7FA00214B
:1012A000202000F0F3FA22E0B348844208D1012163
:1012B000402000F0EBFA0021402000F0E7FA16E0B1
:1012C000AE48844208D10121802000F0DFFA0021DD
:1012D000802000F0DBFA0AE0A948844207D101210E
:1012E000801500F0D3FA0021A01500F0CFFA10BD50
:1012F00010B50121084600F0C9FA0021012000F0D4
:10130000C5FA10BDF0B500220023002400250026F8
:10131000002791F803C00CF00F0291F803C01CF0F5
:10132000100F03D091F802C04CEA0202B1F800C0DD
:101330001CF0FF0F31D0066800242BE04FF0010CA9
:101340000CFA04F5B1F800C00CEA0503AB4220D159
:10135000A5004FF00F0C0CFA05F7BE4302FA05FC8E
:101360004CEA060691F803C0BCF1280F06D14FF0F5
:10137000010C0CFA04FCC0F814C00AE091F803C098
:10138000BCF1480F05D14FF0010C0CFA04FCC0F879
:1013900010C0641C082CD1D30660B1F800C0BCF1A9
:1013A000FF0F34DD466800242EE004F1080C4FF0F6
:1013B000010E0EFA0CF5B1F800C00CEA0503AB42C1
:1013C00021D1A5004FF00F0C0CFA05F7BE4302FA2D
:1013D00005FC4CEA060691F803C0BCF1280F05D1C4
:1013E00004F1080C0EFA0CFEC0F814E091F803C0EA
:1013F000BCF1480F07D104F1080C4FF0010E0EFAB2
:101400000CFEC0F810E0641C082CCED34660F0BD82
:101410004FF6FF710180022181700421C170704775
:101420000246002093680B4201D0012000E000201A
:1014300070470146886880B2704702460020D36832
:101440000B4201D0012000E0002070470146C8682F
:1014500080B2704701617047416170470AB1016114
:1014600000E041617047C16070474FF480320A4329
:101470008261816182618269826970470022414B89
:101480001A684FF680731A4042EA00120A433D4B35
:101490001A6070473C49C8617047F0B500220023CC
:1014A0000024002500F00046B6F1004F02D1354E71
:1014B000F46901E0334E7468C0F3034582B200F46E
:1014C0004016B6F5401F08D124F070642D4E7668A2
:1014D00026F070662B4F7E6012E000F48016B6F5A1
:1014E000801F06D1032606FA05F39C4344F070647E
:1014F00006E0460D360102FA06F6B44344F0706485
:1015000021B1460D360102FA06F6344300F00046DA
:10151000B6F1004F02D11B4EF46101E0194E746028
:10152000F0BD30B500228B071C0F0F2303FA04F225
:10153000144B08338C1053F8244094438D1043F817
:1015400025408C1053F824308C07240F00FA04F443
:1015500023430C4C08348D1044F8253030BD0A4923
:10156000DC3108607047000000080140000C0140B9
:10157000001001400014014000180140001C01400F
:10158000002001400000014000002042DB480068CC
:1015900040F00100D949086008464068D849084031
:1015A000D649486008460068D6490840D3490860D3
:1015B0000846006820F4802008600846406820F44F
:1015C000FE0048604FF41F0088607047CB490968EF
:1015D00021F48031C94A11601146096821F4802143
:1015E0001160B0F5803F03D0B0F5802F0ED106E03A
:1015F000C249096841F48031C04A116007E0BF491F
:10160000096841F4A021BD4A116000E000BF00BF9D
:10161000704710B501460022002300204A11012A1C
:1016200002D1B64C236806E0022A02D1B34C236AE9
:1016300001E0B24C636A01F01F02012494401C4295
:1016400001D0012000E0002010BD70B5002400256D
:10165000002600BF3120FFF7DCFF0646641CB4F50E
:10166000A06F01D0002EF5D03120FFF7D2FF08B1D6
:10167000012500E00025284670BD00219F4A116821
:1016800021F0F80141EAC001116070479E490860ED
:1016900070470022994B5A6822F47C1240EA0103F9
:1016A0001A43964B5A607047974908667047002165
:1016B000924A516821F003010143516070478F48FD
:1016C000406800F00C00704700218C4A516821F0FE
:1016D000F0010143516070470021884A516821F4AC
:1016E000E0610143516070470021844A516821F450
:1016F000605141EAC0015160704729B17F4A527A76
:1017000002437E4B5A7206E07C4A527AC343DBB2F4
:101710001A407A4B5A7270477B49D831086070473B
:101720000021764A516821F44041014351607047DD
:101730000021724A20321170704A82F8201001286C
:1017400002D004280AD104E001216C4A2032117031
:1017500005E00521694A2032117000E000BF00BF9A
:1017600070476A49086070476449096A0143634ADF
:1017700011627047654944390860704730B50021EF
:101780000022002300245D4D6D6805F00C0121B19D
:10179000042905D0082923D105E05D4D056022E02C
:1017A0005B4D05601FE0554D6D6805F47012534D9B
:1017B0006D6805F48033022505EB92421BB9554D47
:1017C000554305600BE04D4D6D6815F4003F03D0A7
:1017D000504D5543056002E04D4D5543056002E014
:1017E0004B4D056000BF00BF444D6D6805F0F00132
:1017F0000909494D6C5C0568E54045603F4D6D68E1
:1018000005F4E061090A444D6C5C4568E54085607B
:101810003A4D6D6805F46051C90A3F4D6C5C4568EE
:10182000E540C560354D6D6805F44041890B3A4D82
:1018300010356C5CC568B5FBF4F5056130BD29B1A8
:101840002E4A526902432D4B5A6104E02B4A5269D9
:1018500082432A4B5A61704729B1284A9269024350
:10186000264B9A6104E0254A92698243234B9A6190
:10187000704729B1214AD2690243204BDA6104E062
:101880001E4AD26982431D4BDA61704729B11B4A57
:10189000D2680243194BDA6004E0184AD2688243E6
:1018A000164BDA60704729B1144A12690243134B90
:1018B0001A6104E0114A12698243104B1A617047A1
:1018C00012494039086070470F49C86470470B4996
:1018D000C87170470948406A40F080700749486203
:1018E000704701460020054A92680A4201D0012053
:1018F00000E00020704701498872704700100240E4
:101900000000FFF8FFFFF6FE000042428004424262
:1019100000127A0000093D000500002010B50446C1
:10192000FB48844209D101218803FFF7AFFF002162
:101930004FF48040FFF7AAFF32E0F648844209D115
:1019400001214804FFF7AFFF00214FF40030FFF7FB
:10195000AAFF25E0F048844209D101218804FFF75D
:10196000A2FF00214FF48020FFF79DFF18E0EB4815
:10197000844209D10121C804FFF795FF00214FF4EB
:101980000020FFF790FF0BE0E548844208D10121D9
:101990000805FFF788FF00214FF48010FFF783FF51
:1019A00010BD2DE9F04786B004460D4600260027FD
:1019B00000BFB146B246A88900B100BFA246268A40
:1019C0004CF6FF700640E88806432682A6894EF64C
:1019D000F3100640A888298908436989084306430B
:1019E000A681A68A4FF6FF400640A8890643A68234
:1019F00001A8FFF7C3FE5446C548824501D1049FA4
:101A000000E0039FA08910F4004F08D007EBC70047
:101A100000EB071029684900B0FBF1F807E007EB7D
:101A2000C70000EB071029688900B0FBF1F86420BB
:101A3000B8FBF0F006013009642101FB1089A08990
:101A400010F4004F09D0322101EBC9006421B0FB32
:101A5000F1F000F00700064308E0322101EB091025
:101A60006421B0FBF1F000F00F000643268106B0C0
:101A7000BDE8F0874FF41651016000218180C180DC
:101A800001810C21418100218181704710B5002224
:101A9000028A4FF2FF031A400B884C8823438C883C
:101AA0002343CC8823431A43028210BD00210180C6
:101AB00041808180C180704721B1828942F4005207
:101AC000828104E082894DF6FF731A40828170475B
:101AD000F0B50024002500260023A1F510676A3F19
:101AE00000D100BF0346C1F3421401F01F050127D6
:101AF00007FA05F6012C01D10C3304E0022C01D1C8
:101B0000103300E014331AB11F6837431F6002E03E
:101B10001F68B7431F60F0BD10B51AB1838A0B432D
:101B2000838204E0838ACC43A4B22340838210BD25
:101B3000028A4FF6F0731A400282028A0A43028236
:101B4000704782894FF2FF731A40828182890A436B
:101B50008281704721B1828942F00202828104E0D1
:101B600082894FF6FD731A4082817047028A4FF6D0
:101B7000DF731A400282028A0A430282704721B14F
:101B8000028A42F48042028204E0028A4BF6FF732A
:101B90001A4002827047C1F30802828070470146F2
:101BA0008888C0F308007047818941F00101818174
:101BB0007047028BD2B20283028B42EA0122028377
:101BC0007047028B02F47F420283028B0A43028336
:101BD000704721B1828A42F02002828204E0828A28
:101BE0004FF6DF731A408282704721B1828A42F039
:101BF0001002828204E0828A4FF6EF731A408282DA
:101C0000704721B1828A42F00802828204E0828A0F
:101C10004FF6F7731A408282704721B1828942F4ED
:101C20000042828103E08289C2F30E028281704702
:101C300021B1828A42F40062828204E0828A4FF2F9
:101C4000FF731A4082827047828A4FF6FB731A40F4
:101C50008282828A0A438282704721B1828A42F05C
:101C60000202828204E0828A4FF6FD731A40828269
:101C7000704702460020B1F5007F00D100BF1388F5
:101C80000B4201D0012000E00020704701F40072F7
:101C9000B2F5007F00D100BFCA430280704770B523
:101CA00002460023002400250020A1F510666A3EAC
:101CB00000D100BFC1F3421501F01F04012606FA4E
:101CC00004F4012D02D19689344006E0022D02D1A0
:101CD000168A344001E0968A34400B12012606FA37
:101CE00003F31688334014B10BB1012000E000204B
:101CF00070BD10B500220023A1F510646A3C00D12C
:101D000000BF0A1201249440A3B2DC43048010BD3A
:101D1000003801400044004000480040004C0040B2
:101D20000050004000200021674A126842F48032CF
:101D3000654B1A6000BF644A126802F40031401C0F
:101D400011B9B0F5A06FF6D15F4A126812F4003FE6
:101D500001D0012100E00021012942D15B4A126833
:101D600042F01002594B1A601A46126822F0030220
:101D70001A601A46126842F002021A60524A526809
:101D8000514B5A601A4652685A601A46526842F4D9
:101D900080625A601A46526822F47C125A601A46CF
:101DA000526842F4E8125A601A46126842F0807291
:101DB0001A6000BF444A126812F0007FFAD0424A0B
:101DC000526822F00302404B5A601A46526842F0B1
:101DD00002025A6000BF3C4A526802F00C02082A14
:101DE000F9D1704710B5FFF79DFF10BD10B536480B
:101DF000006840F0010034490860084640683449F2
:101E000008403149486008460068324908402E4978
:101E100008600846006820F4802008600846406892
:101E200020F4FE0048604FF41F008860FFF7DAFFDF
:101E30004FF000602849086010BD10B50020002157
:101E40000022214B5B6803F00C0020B1042806D06F
:101E5000082828D107E0214B214C236027E01F4BA5
:101E60001F4C236023E0184B5B6803F47011164B82
:101E70005B6803F48032022303EB914122B9194BD2
:101E80004B43174C23600DE00F4B5B6813F4003F8E
:101E900004D0144B4B43124C236003E00F4B4B43D5
:101EA0000F4C236003E00D4B0D4C236000BF00BFBF
:101EB000054B5B68C3F303130B4CE05C084B1B68DA
:101EC000C340074C236010BD0010024000200240B8
:101ED0000000FFF8FFFFF6FE08ED00E000127A00B8
:101EE0001C00002000093D0020000020064C074D8A
:101EF00006E0E06840F0010394E8070098471034DA
:101F0000AC42F6D3FEF7F6F8601F0008801F000809
:101F1000014A024900F013B8C30200083000002053
:101F200002E008C8121F08C1002AFAD170477047A2
:101F3000002001E001C1121F002AFBD170472DE9EA
:101F4000F04104460F461646002503E03946B047E7
:101F50006D1C641C20780028F8D12846BDE8F0816B
:101F6000801F00080000002034000000201F00082F
:101F7000B41F00083400002004040000301F0008D3
:101F80000000000000000000000102030401020341
:101F900004060708090204060800000000A24A041B
:101FA0000000000000000000010203040607080909
:041FB000000000002D
:0400000508000101ED
:00000001FF
