:020000040800F2
:1000000038040020010100081D0200081F0200083A
:1000100023020008270200082B020008000000004D
:100020000000000000000000000000002F02000897
:100030003102000800000000330200083502000809
:100040001B0100081B0100081B0100081B01000820
:100050001B0100081B0100081B0100081B01000810
:100060001B0100081B0100081B0100081B01000800
:100070001B0100081B0100081B0100081B010008F0
:100080001B0100081B0100081B0100081B010008E0
:100090001B0100081B0100081B0100081B010008D0
:1000A0001B0100081B0100081B0100081B010008C0
:1000B0001B0100081B0100081B0100081B010008B0
:1000C0001B0100081B0100081B0100081B010008A0
:1000D0001B0100081B0100081B0100081B01000890
:1000E0001B0100081B0100081B010008DFF80CD0F1
:1000F00001F006FF004800472F01000838040020E7
:100100000648804706480047FEE7FEE7FEE7FEE7B1
:10011000FEE7FEE7FEE7FEE7FEE7FEE785170008DD
:10012000ED00000800E0401E0028FCD170477FB5BC
:1001300000F082F800F0FEF918A001F013FF2BE0A8
:100140001F48008801F048FC05464FF08B4101F044
:1001500099FB044601F045FCCDE9020119A00CC849
:10016000029801F0C5FBCDE9000101F04CFC1749F4
:1001700008601348018816A001F0F4FE13480068D7
:1001800001F02FFC0B460246CDE9020119A001F057
:10019000E9FE2148FFF7C6FFD2E700000D0A202D37
:1001A0002D2D2D2D2D2DD5E2CAC7D2BBB8F6414439
:1001B00043CAB5D1E92D2D2D2D2D2D0D0A0000009E
:1001C000040000206666666666660A40000000203D
:1001D0000D0A205468652063757272656E74204143
:1001E000442076616C7565203D2030782530345888
:1001F000200D0A000D0A205468652063757272652F
:100200006E742041442076616C7565203D20256622
:100210002056200D0A000000EEFFFF00704700BFCF
:10022000FEE700BFFEE700BFFEE700BFFEE7704746
:10023000704770477047000000B585B0012144F257
:10024000040000F0D5FF4FF40070ADF81000182046
:100250008DF8130003208DF8120004A9744800F0F3
:100260001DFD4FF48060ADF8100004208DF81300E0
:1002700004A96F4800F012FD4FF4E1300090002017
:10028000ADF80400ADF80600ADF80800ADF80C00BC
:100290000C20ADF80A006946664801F04EF80121CD
:1002A000644801F0D5F805B000BD70B504460D46B0
:1002B000E1B2604801F03BF900BF40215D4801F028
:1002C000A4F90128F9D1204670BDF0B503460027F6
:1002D0000E460A2A03D0002030700846F0BD33B91C
:1002E000302006F8010B002030700846F6E7002B9E
:1002F00003DA2D2006F8010B5B4242F210740DE088
:1003000093FBF4F505B937B105F1300006F8010BA0
:1003100005FB143301270A2094FBF0F4002CEFDCDA
:10032000002030700846D9E70FB470B586B0044697
:100330000CA8019073E00B9800785C281CD10B98F6
:10034000401C0B9000786E2809D072280FD10D2127
:10035000204601F0ECF80B98401C0B900BE00A21B2
:10036000204601F0E4F80B98401C0B9003E00B983A
:10037000401C0B9000BF4BE00B980078252840D123
:100380000B98401C0B900078642818D0732833D148
:10039000019820C801900BE02978204601F0C7F8A9
:1003A00000BF4021204601F030F90028F9D06D1C33
:1003B00028780028F0D10B98401C0B9020E0019881
:1003C00040C801900A2202A93046FFF77EFF02AD25
:1003D0000BE02978204601F0AAF800BF4021204612
:1003E00001F013F90028F9D06D1C28780028F0D10D
:1003F0000B98401C0B9003E00B98401C0B9000BF27
:1004000006E00B9810F8011B0B90204601F08FF8C6
:1004100000BF4021204601F0F8F80028F9D00B98E1
:100420000078002887D106B070BC5DF814FB00008E
:10043000000801400038014008B50121084600F0DD
:10044000CAFE01214FF4047000F0D2FE8020ADF806
:10045000000000208DF803006946394800F01EFCBA
:1004600008BD00B591B0374800F08AFA36480690CA
:1004700036480790002008900120099000200A903B
:100480000B904FF480700C9080000D9020200E9007
:1004900000020F900020109006A92A4800F018FBD7
:1004A0000121284800F03FFB002001908DF8080052
:1004B00001208DF809004FF4602003900020049083
:1004C00001208DF8140001A91F484C3800F067F88E
:1004D0004FF4404000F0F0FD0523012207211A48A7
:1004E0004C3800F0F2F8012117484C3800F08DF834
:1004F000012115484C3800F07DF813484C3800F0C5
:100500009BF800BF10484C3800F09BF80028F9D148
:100510000D484C3800F09FF800BF0B484C3800F0F5
:100520009FF80028F9D1012107484C3800F0A2F8C3
:1005300011B000BD10B5FFF77FFFFFF792FF10BDB0
:1005400000080140080002404C2401400400002043
:1005500010B50446F748844208D10121401500F047
:1005600061FE0021601500F05DFE17E0F248844254
:1005700008D10121001500F055FE0021201500F0E2
:1005800051FE0BE0ED48844208D10121C80300F080
:1005900049FE00214FF4004000F044FE10BD30B58C
:1005A000002200234268E64C22400D790C6844EAA0
:1005B0000524224342608268E24C2240D1E9025481
:1005C0002C434D7944EA450422438260C26A22F4F6
:1005D00070020C7C641EE4B2234342EA0352C262FE
:1005E00030BD00210160017141718160C160012154
:1005F0000174704721B1826842F00102826003E019
:10060000826822F001028260704721B1826842F460
:100610008072826003E0826822F480728260704798
:1006200010B50023CBB21AB144681C43446002E009
:1006300044689C43446010BD816841F008018160BA
:100640007047014600208A6812F0080F01D001208F
:1006500000E000207047816841F00401816070472C
:10066000014600208A6812F0040F01D0012000E04A
:100670000020704721B1826842F4A002826003E04A
:10068000826822F4A00282607047014600208A68D6
:1006900012F4800F01D0012000E00020704710B557
:1006A00000220023426822F460424B1E42EA433299
:1006B000426010BD21B1426842F40062426003E032
:1006C000426822F4006242607047F0B500240025C1
:1006D000092911DDC468A1F10A0606EB46070726C1
:1006E00006FA07F5AC43A1F10A0606EB460603FA43
:1006F00006F52C43C4600CE0046901EB41070726B2
:1007000006FA07F5AC4301EB410603FA06F52C4364
:100710000461072A0FDA446B561E06EB86071F2674
:1007200006FA07F5AC43561E06EB860601FA06F5F7
:100730002C43446322E00D2A0FDA046BD61F06EB2C
:1007400086071F2606FA07F5AC43D61F06EB86067A
:1007500001FA06F52C43046310E0C46AA2F10D0609
:1007600006EB86071F2606FA07F5AC43A2F10D0635
:1007700006EB860601FA06F52C43C462F0BD21B1F2
:10078000826842F48012826003E0826822F4801260
:10079000826070470146C86C80B2704765484C3033
:1007A0000068704721B1426842F48062426003E011
:1007B000426822F480624260704721B1426842F48C
:1007C0008052426003E0426822F4805242607047E7
:1007D0000022826822F4E0420A438260704721B11D
:1007E000826842F40042826003E0826822F40042A0
:1007F0008260704721B1826842F40212826003E095
:10080000826822F4021282607047014600208A68E2
:1008100012F4001F01D0012000E000207047F0B565
:10082000002400250026092911DDC468A1F10A076A
:1008300007EB470C072707FA0CF5AC43A1F10A07B1
:1008400007EB470703FA07F52C43C4600CE0046983
:1008500001EB410C072707FA0CF5AC4301EB41070C
:1008600003FA07F52C430461846BC4F30156D71CCB
:1008700006F1010CA7EB0C0707EB870C1F2707FA03
:100880000CF5AC43D71C06F1010CA7EB0C0707EBEA
:10089000870701FA07F52C438463F0BD10B50022E9
:1008A0000023826B22F440124B1E42EA0352826301
:1008B00010BD10B50023034618460B441A6010BD46
:1008C0000246002313461A4601F128000344186823
:1008D00080B27047002242681B4B1A400A434260B4
:1008E00070474162826270470022426822F01F0214
:1008F0000A434260704740B10E490831096841F42B
:100900000001124AC2F8081407E00A4908310968D0
:1009100021F400010D4AC2F8081470470246002075
:1009200013680B4201D0012000E000207047CA4349
:10093000026070470024014000280140003C014053
:10094000FFFEF0FFFDF7F1FFFFFD3FFF002001403C
:1009500070B502460020002300240B125568CEB269
:1009600005EA060415681D4202D00CB1012000E022
:10097000002070BD00220A12D343036070470000BC
:1009800001684FF6FE721140016000210160416074
:100990008160C1608F49884208D18E490839496811
:1009A00041F00F018B4A083A516090E089491431B7
:1009B000884208D187490839496841F0F001854AE1
:1009C000083A516083E083492831884208D181493F
:1009D0000839496841F470617E4A083A516076E00E
:1009E0007C493C31884208D17A490839496841F448
:1009F0007041784A083A516069E07649503188423E
:100A000008D174490839496841F47021714A083A9B
:100A100051605CE06F496431884208D16D49083902
:100A2000496841F470016B4A083A51604FE06949E6
:100A30007831884208D167490839496841F07061C6
:100A4000644A083A516042E06349884208D1011F74
:100A5000096841F00F015F4A083AC2F8041436E011
:100A60005D491431884209D15B49091F096841F089
:100A7000F001584A083AC2F8041428E056492831CF
:100A8000884209D15449091F096841F47061514AEB
:100A9000083AC2F804141AE04F493C31884209D19F
:100AA0004D49091F096841F470414A4A083AC2F8A1
:100AB00004140CE048495031884208D14649091FC6
:100AC000096841F47021434A083AC2F80414704797
:100AD00010B50022026847F6F0739A430C6A8B68DF
:100AE00023430C6923434C6923438C692343CC691A
:100AF00023434C6A23438C6A23431A430260CB6826
:100B000043600B6883604B68C36010BD00210160C7
:100B100041608160C160016141618161C1610162C7
:100B200041628162704721B1026842F001020260B5
:100B300004E002684FF6FE731A40026070471AB173
:100B400003680B43036002E003688B430360704754
:100B5000416070470146486880B2704702460020F5
:100B6000002112F0805F03D01B4B083B196802E0A4
:100B7000184B083B1968114201D0012000E0002009
:100B8000704710F0805F03D01349091F086002E02E
:100B9000104908394860704702460020002112F0D1
:100BA000805F03D00C4B083B196802E0094B083BFF
:100BB0001968114201D0012000E00020704710F0B8
:100BC000805F03D00449091F086002E00149083929
:100BD00048607047080002400804024010B504460F
:100BE000C748844208D10121042000F01BFB0021EA
:100BF000042000F017FB46E0C248844208D10121DE
:100C0000082000F00FFB0021082000F00BFB3AE069
:100C1000BD48844208D10121102000F003FB0021CF
:100C2000102000F0FFFA2EE0B848844208D10121DC
:100C3000202000F0F7FA0021202000F0F3FA22E053
:100C4000B348844208D10121402000F0EBFA002192
:100C5000402000F0E7FA16E0AE48844208D10121B6
:100C6000802000F0DFFA0021802000F0DBFA0AE0AB
:100C7000A948844207D10121801500F0D3FA002150
:100C8000A01500F0CFFA10BD10B50121084600F004
:100C9000C9FA0021012000F0C5FA10BDF0B500220C
:100CA0000023002400250026002791F803C00CF043
:100CB0000F0291F803C01CF0100F03D091F802C08E
:100CC0004CEA0202B1F800C01CF0FF0F31D00668F8
:100CD00000242BE04FF0010C0CFA04F5B1F800C031
:100CE0000CEA0503AB4220D1A5004FF00F0C0CFA23
:100CF00005F7BE4302FA05FC4CEA060691F803C06C
:100D0000BCF1280F06D14FF0010C0CFA04FCC0F81E
:100D100014C00AE091F803C0BCF1480F05D14FF0B0
:100D2000010C0CFA04FCC0F810C0641C082CD1D3D0
:100D30000660B1F800C0BCF1FF0F34DD4668002446
:100D40002EE004F1080C4FF0010E0EFA0CF5B1F88C
:100D500000C00CEA0503AB4221D1A5004FF00F0CF7
:100D60000CFA05F7BE4302FA05FC4CEA060691F8B8
:100D700003C0BCF1280F05D104F1080C0EFA0CFEDB
:100D8000C0F814E091F803C0BCF1480F07D104F19A
:100D9000080C4FF0010E0EFA0CFEC0F810E0641CB7
:100DA000082CCED34660F0BD4FF6FF7101800221C2
:100DB00081700421C17070470246002093680B4285
:100DC00001D0012000E0002070470146886880B211
:100DD000704702460020D3680B4201D0012000E09A
:100DE000002070470146C86880B2704701617047B3
:100DF000416170470AB1016100E041617047C16023
:100E000070474FF480320A43826181618261826956
:100E1000826970470022414B1A684FF680731A406E
:100E200042EA00120A433D4B1A6070473C49C861D0
:100E30007047F0B5002200230024002500F0004692
:100E4000B6F1004F02D1354EF46901E0334E7468BB
:100E5000C0F3034582B200F44016B6F5401F08D136
:100E600024F070642D4E766826F070662B4F7E60FD
:100E700012E000F48016B6F5801F06D1032606FAAC
:100E800005F39C4344F0706406E0460D360102FA17
:100E900006F6B44344F0706421B1460D360102FAFF
:100EA00006F6344300F00046B6F1004F02D11B4E67
:100EB000F46101E0194E7460F0BD30B500228B077B
:100EC0001C0F0F2303FA04F2144B08338C1053F851
:100ED000244094438D1043F825408C1053F824305F
:100EE0008C07240F00FA04F423430C4C08348D10B3
:100EF00044F8253030BD0A49DC31086070470000F5
:100F000000080140000C01400010014000140140A5
:100F100000180140001C0140002001400000014079
:100F200000002042DB48006840F00100D949086019
:100F300008464068D8490840D649486008460068D5
:100F4000D6490840D34908600846006820F480204C
:100F500008600846406820F4FE0048604FF41F0017
:100F600088607047CB49096821F48031C94A116013
:100F70001146096821F480211160B0F5803F03D04B
:100F8000B0F5802F0ED106E0C249096841F48031E6
:100F9000C04A116007E0BF49096841F4A021BD4A79
:100FA000116000E000BF00BF704710B5014600228D
:100FB000002300204A11012A02D1B64C236806E022
:100FC000022A02D1B34C236A01E0B24C636A01F0F9
:100FD0001F02012494401C4201D0012000E00020A7
:100FE00010BD70B500240025002600BF3120FFF79A
:100FF000DCFF0646641CB4F5A06F01D0002EF5D0CE
:101000003120FFF7D2FF08B1012500E00025284676
:1010100070BD00219F4A116821F0F80141EAC0012A
:10102000116070479E49086070470022994B5A68CA
:1010300022F47C1240EA01031A43964B5A6070472F
:101040009749086670470021924A516821F00301D0
:101050000143516070478F48406800F00C007047B2
:1010600000218C4A516821F0F00101435160704722
:101070000021884A516821F4E061014351607047C2
:101080000021844A516821F4605141EAC001516055
:10109000704729B17F4A527A02437E4B5A7206E06A
:1010A0007C4A527AC343DBB21A407A4B5A72704779
:1010B0007B49D831086070470021764A516821F495
:1010C00040410143516070470021724A2032117043
:1010D000704A82F82010012802D004280AD104E0C6
:1010E00001216C4A2032117005E00521694A203245
:1010F000117000E000BF00BF70476A490860704788
:101100006449096A0143634A116270476549443979
:101110000860704730B500210022002300245D4D97
:101120006D6805F00C0121B1042905D0082923D1EF
:1011300005E05D4D056022E05B4D05601FE0554D0B
:101140006D6805F47012534D6D6805F48033022507
:1011500005EB92421BB9554D554305600BE04D4DD3
:101160006D6815F4003F03D0504D5543056002E013
:101170004D4D5543056002E04B4D056000BF00BF7B
:10118000444D6D6805F0F0010909494D6C5C056836
:10119000E54045603F4D6D6805F4E061090A444D46
:1011A0006C5C4568E54085603A4D6D6805F46051BA
:1011B000C90A3F4D6C5C4568E540C560354D6D68BA
:1011C00005F44041890B3A4D10356C5CC568B5FBA0
:1011D000F4F5056130BD29B12E4A526902432D4B09
:1011E0005A6104E02B4A526982432A4B5A61704784
:1011F00029B1284A92690243264B9A6104E0254AA4
:1012000092698243234B9A61704729B1214AD2697E
:101210000243204BDA6104E01E4AD26982431D4B2F
:10122000DA61704729B11B4AD2680243194BDA6070
:1012300004E0184AD2688243164BDA60704729B13D
:10124000144A12690243134B1A6104E0114A1269ED
:101250008243104B1A617047124940390860704749
:101260000F49C86470470B49C87170470948406A04
:1012700040F0807007494862704701460020054AE7
:1012800092680A4201D0012000E000207047014925
:1012900088727047001002400000FFF8FFFFF6FE62
:1012A000000042428004424200127A0000093D00E0
:1012B0000600002010B50446FB48844209D10121F4
:1012C0008803FFF7AFFF00214FF48040FFF7AAFF2C
:1012D00032E0F648844209D101214804FFF7AFFF0C
:1012E00000214FF40030FFF7AAFF25E0F0488442C8
:1012F00009D101218804FFF7A2FF00214FF48020CB
:10130000FFF79DFF18E0EB48844209D10121C80492
:10131000FFF795FF00214FF40020FFF790FF0BE04F
:10132000E548844208D101210805FFF788FF002124
:101330004FF48010FFF783FF10BD2DE9F04786B012
:1013400004460D460026002700BFB146B246A889D4
:1013500000B100BFA246268A4CF6FF700640E8881E
:1013600006432682A6894EF6F3100640A8882989EE
:101370000843698908430643A681A68A4FF6FF40C1
:101380000640A8890643A68201A8FFF7C3FE54467B
:10139000C548824501D1049F00E0039FA08910F455
:1013A000004F08D007EBC70000EB07102968490081
:1013B000B0FBF1F807E007EBC70000EB0710296866
:1013C0008900B0FBF1F86420B8FBF0F006013009A9
:1013D000642101FB1089A08910F4004F09D032214B
:1013E00001EBC9006421B0FBF1F000F007000643F7
:1013F00008E0322101EB09106421B0FBF1F000F0AC
:101400000F000643268106B0BDE8F0874FF4165161
:10141000016000218180C18001810C214181002176
:101420008181704710B50022028A4FF2FF031A40F3
:101430000B884C8823438C882343CC8823431A434E
:10144000028210BD0021018041808180C1807047EF
:1014500021B1828942F40052828104E082894DF6F2
:10146000FF731A4082817047F0B5002400250026E2
:101470000023A1F510676A3F00D100BF0346C1F306
:10148000421401F01F05012707FA05F6012C01D1CE
:101490000C3304E0022C01D1103300E014331AB1F4
:1014A0001F6837431F6002E01F68B7431F60F0BD2D
:1014B00010B51AB1838A0B43838204E0838ACC433C
:1014C000A4B22340838210BD028A4FF6F0731A4003
:1014D0000282028A0A430282704782894FF2FF73B6
:1014E0001A40828182890A438281704721B18289B0
:1014F00042F00202828104E082894FF6FD731A40B5
:1015000082817047028A4FF6DF731A400282028A94
:101510000A430282704721B1028A42F48042028269
:1015200004E0028A4BF6FF731A4002827047C1F34F
:1015300008028280704701468888C0F3080070471F
:10154000818941F0010181817047028BD2B202830F
:10155000028B42EA012202837047028B02F47F422F
:101560000283028B0A430283704721B1828A42F0D0
:101570002002828204E0828A4FF6DF731A40828260
:10158000704721B1828A42F01002828204E0828A8E
:101590004FF6EF731A408282704721B1828A42F07F
:1015A0000802828204E0828A4FF6F7731A40828230
:1015B000704721B1828942F40042828103E082892E
:1015C000C2F30E028281704721B1828A42F4006226
:1015D000828204E0828A4FF2FF731A40828270474F
:1015E000828A4FF6FB731A408282828A0A43828281
:1015F000704721B1828A42F00202828204E0828A2C
:101600004FF6FD731A408282704702460020B1F502
:10161000007F00D100BF13880B4201D0012000E001
:101620000020704701F40072B2F5007F00D100BFC6
:10163000CA430280704770B502460023002400258B
:101640000020A1F510666A3E00D100BFC1F342152B
:1016500001F01F04012606FA04F4012D02D1968937
:10166000344006E0022D02D1168A344001E0968A09
:1016700034400B12012606FA03F31688334014B1E6
:101680000BB1012000E0002070BD10B50022002346
:10169000A1F510646A3C00D100BF0A1201249440F5
:1016A000A3B2DC43048010BD003801400044004078
:1016B00000480040004C0040005000400020002145
:1016C000674A126842F48032654B1A6000BF644A70
:1016D000126802F40031401C11B9B0F5A06FF6D1C8
:1016E0005F4A126812F4003F01D0012100E000219E
:1016F000012942D15B4A126842F01002594B1A602C
:101700001A46126822F003021A601A46126842F062
:1017100002021A60524A5268514B5A601A46526885
:101720005A601A46526842F480625A601A465268F9
:1017300022F47C125A601A46526842F4E8125A6047
:101740001A46126842F080721A6000BF444A12685A
:1017500012F0007FFAD0424A526822F00302404B56
:101760005A601A46526842F002025A6000BF3C4A70
:10177000526802F00C02082AF9D1704710B5FFF741
:101780009DFF10BD10B53648006840F00100344997
:1017900008600846406834490840314948600846B6
:1017A0000068324908402E4908600846006820F465
:1017B000802008600846406820F4FE0048604FF42E
:1017C0001F008860FFF7DAFF4FF0006028490860CB
:1017D00010BD10B5002000210022214B5B6803F0F2
:1017E0000C0020B1042806D0082828D107E0214B9E
:1017F000214C236027E01F4B1F4C236023E0184B34
:101800005B6803F47011164B5B6803F480320223AB
:1018100003EB914122B9194B4B43174C23600DE068
:101820000F4B5B6813F4003F04D0144B4B43124C36
:10183000236003E00F4B4B430F4C236003E00D4B41
:101840000D4C236000BF00BF054B5B68C3F303135F
:101850000B4CE05C084B1B68C340074C236010BD79
:1018600000100240002002400000FFF8FFFFF6FEDB
:1018700008ED00E000127A001C00002000093D0085
:1018800020000020F0B480EA010230F0004302F0B2
:10189000004221F0004000D010B9F0BC0020704799
:1018A000C0F3C755C3F31601C3F3C756731BC0F388
:1018B000160040F400047E3341F400014FF08075BF
:1018C0000020A14201D3091B28436D084FEA4101C2
:1018D000F7D151B1A14202D14FF0004105E002D24F
:1018E0004FF0010101E06FF00101F0BC00F0F4B82D
:1018F0002DE9FF4D144681EA030200208AB002F070
:101900000042CDE9080223F00046034602460A9849
:1019100021F0004585EA03015040084306D000232A
:1019200086EA030184EA0300084304D1002001464B
:101930000EB0BDE8F08DC5F30A51C6F30A5000277A
:101940000844A0F2F330C5F31302CDE9030742F4D3
:101950008015C6F3130242F48016BA46B846BB4659
:10196000069725E0E00717D0049A0A9880180246E7
:1019700004900A9845EB0A0A121A7AEB050301D281
:10198000012000E00020C11710EB0800069A794101
:10199000801841EB0B0B069018EB08000A9A7F4168
:1019A00040EAD57890186D4176080A904FEA3404E1
:1019B000002386EA030184EA03000843D2D1039B93
:1019C000DDE90801CDE90001029353465946049A26
:1019D000069800F0C2F8ABE796230022114600F00B
:1019E0007BB800F0004230F0004001D10146704762
:1019F000C30DC0F3160003F56073C108400742EA47
:101A0000035211437047F0B40023054601F000462D
:101A100021F0004484EA0301584008430ED0C4F387
:101A2000130040F48010230DC10041EA5570E90015
:101A30003246F0BCA3F5607300F04EB8F0BC7047BE
:101A400030B50B46014600202022012409E021FA8E
:101A500002F59D4205D303FA02F5491B04FA02F58B
:101A60002844151EA2F10102F1DC30BD2DE9F0473A
:101A7000002591469A46074688462E46402418E09F
:101A800022464146384600F05DFAB0EB090071EBA2
:101A90000A010ED322465146484600F043FA3F1A47
:101AA00068EB010822460021012000F03BFA4519AD
:101AB0004E41201EA4F10104E2DC284631463A469C
:101AC0004346BDE8F087002905DA401CB1F1004F1C
:101AD00001D120F00100704730B450EA01040BD16D
:101AE00030BC0020704701F0010545EA510141EA90
:101AF000C07140085B1C01E04FF08074A042F2D23C
:101B00004FF4000404E0400040EAD17049005B1E3D
:101B1000A042F8D300EBC350A0F5000030BC104445
:101B2000D1E70000F0B504460D46002003F0004167
:101B30004140404017461E4608430BD0641C4FF0FE
:101B4000004386EA030145F1000557EA010001D18F
:101B500024F0010420462946F0BD2DE9F00D884609
:101B60001D46194307460023104359405840099E1B
:101B700014464FF0FF3A084311D1BDE8F00D01467D
:101B80007047680804F0010242EA340440EAC7756D
:101B90005FEA58084FEA370706F1010601E0DFF86F
:101BA00048B0BAEB07027BEB0803EAD34FF4801A84
:101BB00007E0FF1948EB080847EAD57724196D417B
:101BC000761E381E78EB0A01F3D33305A3F5801394
:101BD000381C48EB0301DDE90723801859412B46E7
:101BE0002246BDE8F00D9DE7FFFF1F002DE9FF4DE8
:101BF00086B0089A834623F0004301F0004421F0A8
:101C00000045129F801A4FF0FF384FF0000A1E4621
:101C100075EB030108D259462846354693460646D9
:101C200008910FB184F000440023089886EA03016C
:101C30005840084305D1584645EA04010AB0BDE8BA
:101C4000F08DC5F30A51C6F30A50081ACDE9040114
:101C5000C5F3130040F480150498402837DAC6F322
:101C6000130040F48018049A0898414637B100F0F8
:101C700069F9BBEB000065EB010104E000F062F9DB
:101C800010EB0B006941054604980E46C0F1400276
:101C90004146089800F046F98346884677B1DBF163
:101CA000000B4FF0000368EB480888EA03018BEA59
:101CB0000300084302D05A1EAD185641059BCDE9DA
:101CC00000A4029343465A463146284612E057B1D3
:101CD000059BCDE900A41BEB0800029345EB08012E
:101CE0004346424606E0CDE900A4029100230122CA
:101CF00029465846FFF731FFA0E7F8B50D460746DD
:101D00005940002001F000414140404016461C4629
:101D1000084301D0012300E000230093234632460C
:101D200029463846FFF762FFF8BDF8B50D4607466D
:101D30005940002001F000414140404016461C46F9
:101D4000084301D0002300E00123009323463246DC
:101D500029463846FFF74AFFF8BDF8B50D46074655
:101D60005940002001F000414140404016461C46C9
:101D7000084301D0002300E0012300932B463A469C
:101D800021463046FFF732FFF8BD2DE9FF4D0546ED
:101D900081EA0302002086B002F0004223F00046F0
:101DA000CDE90402034621F0004484EA03016840BF
:101DB000084306D00023089886EA030158400843E8
:101DC00004D1002001460AB0BDE8F08DC4F30A51E9
:101DD000C4F31302C6F30A5042F480144FF0000B10
:101DE000C6F31302081A42F4801200F2FE305F4676
:101DF0004FF40016D846DA460992039011E0DDE967
:101E00000823A81A74EB030106D3AD1A64EB03048C
:101E100048EA07084AEA060A76084FEA37076D19C2
:101E20006441002386EA030187EA03000843E6D100
:101E300084EA030185EA0300084315D0DDE908239D
:101E400084EA030185EA0200084303D15D464FF0AE
:101E5000004409E0A81A74EB030102D201255C4694
:101E600002E06FF001056C10DDE90401039BCDE990
:101E70000001029323462A4651464046FFF76DFE75
:101E8000A1E721F000410A0DC1F3130140F2FF3335
:101E900041F480119A4202DA00200146704740F274
:101EA00033439A42A2F2334202DC524200F04AB873
:101EB00000F038B82DE9F04107460D46002001F04A
:101EC00000414140404016461C464FF00048084340
:101ED00002D17F4268EB0505002004F0004141403B
:101EE0004040084302D1764268EB04043846294654
:101EF00032462346994208BF9042BDE8F081000077
:101F0000064C074D06E0E06840F0010394E8070046
:101F100098471034AC42F6D3FEF7ECF88C28000852
:101F2000AC280008202A04DB0023203A00FA02F142
:101F300006E000FA02F39140C2F12002D0400143D2
:101F400018467047202A04DB203A21FA02F00021CB
:101F50007047D040C2F1200301FA03F31843D14087
:101F6000704700000FB410B503A9044B044A02984F
:101F700000F0E4F810BC5DF814FB0000AB020008B0
:101F80003000002002E008C8121F08C1002AFAD160
:101F900070477047002001E001C1121F002AFBD1E9
:101FA000704700002DE9FF5F84B08B46DDE9060134
:101FB00000234FEA1154DDE9128959405840084383
:101FC00010D1012454A3B9F1010F02D16FEA080125
:101FD00000E000210498C0E90249C0E9003108B0DE
:101FE000BDE8F09FA4F2FF3444F61050444325149A
:101FF000B9F1010F404601D1464201E02E1A761C8C
:1020000046A003C87442CDE9000146A0D0E900A76C
:10201000002E14DB344612E0E00707D0DDE9002390
:1020200039465046FFF764FC82460F46DDE900233F
:1020300019461046FFF75CFC6410CDE90001002C46
:10204000EAD1DDE90601002E3B46524602DAFFF7EF
:102050004FFC01E0FFF799FE34A20CCA04460E467D
:10206000FFF728FF03D84FF0FF36374609E031A0CD
:102070000CC831462046FFF740FEFFF702FF064638
:102080000F4610240DE0002C12DB00230A223946F3
:102090003046FFF7EBFC30320BF8042006460F46C3
:1020A000641E002387EA030186EA03000843EAD19D
:1020B000641C0BEB0400C4F1110A0390B9F1010F89
:1020C0000FD1002387EA030186EA0300084303D106
:1020D000AAEB08056D1E18E04FF011084FF000093B
:1020E00086E70023012487EA030186EA0300084308
:1020F00001D1C24502DD00246D1C04E003DA4FF07B
:102100000004A5F10105002CEAD00498C0E902A959
:1021100045600399016062E73000000000000000A4
:1021200000002440000000000000F03F000000001C
:102130000000F043000000000000E03F2DE9FF4FE9
:1021400099B006469A460F46002564E3252879D1C2
:102150000024761CFD4AA046012117943378203BC9
:1021600001FA03F0104202D00443761CF6E73078FF
:102170002A2816D101CF1790002803DA404244F4F0
:102180000054179044F00204761C11E0179844F0B4
:10219000020400EB800002EB40000844761C17901C
:1021A00001E06FF02F023178A1F130000928EDD95C
:1021B00030782E2818D116F8010F44F004042A288C
:1021C0000BD157F8048B761C0EE008EB880002EB6D
:1021D000400001EB0008761C01E06FF02F0231781F
:1021E000A1F130000928F0D930786C280ED008DC35
:1021F0004C2816D068280CD06A2813D144F4001457
:102200000FE074280DD07A280CD10AE044F4801431
:1022100001E044F440147178814202D1761C04F547
:102220008014761C307866280BD013DC582827D011
:1022300009DC002872D04528F6D04628F4D047287B
:1022400085D19DE1EFE2632832D0642877D06528FC
:10225000F6D195E1702871D00CDC6728F1D069289F
:102260006DD06E280ED06F28EAD108210022CDE96A
:102270001212ADE0732825D0752870D07828DFD1F0
:102280001021F3E7C4F30250022804D13868E9179B
:10229000C0E900510AE0032802D13868058005E052
:1022A0000428386801D1057000E005603F1DB1E2E7
:1022B00001CF8DF8540000208DF855000DF1540B1E
:1022C000012003E057F804BB4FF0FF3061074FF0E7
:1022D00000010CD501E009F101018946414510DA00
:1022E0008145F8DB1BF809100029F4D109E001E071
:1022F00009F1010189468142FADB1BF80910002926
:10230000F6D117985346A0EB0908214640461B9A80
:1023100000F0A6FA284400EB090506E07FE20EE093
:102320001BF8010B52461B999047B9F101008146F9
:10233000F6D25346214640461B9A1DE140E00A2052
:102340000021CDE91201C4F30250022808D1FF1D7B
:1023500027F00707D7E900910837159112E02DE023
:1023600002CFCA1789461592032804D10FFA89F1C2
:10237000CA1789461592042804D14FFA89F0C1176B
:102380008146159100231599B9EB0300994108DAAC
:102390001599D9F1000961EB41014FF02D0015911C
:1023A00002E0200504D52B208DF82000012003E059
:1023B000E00701D02020F7E7834657E00A2155E7E0
:1023C00010210022CDE9121244F004044FF0080855
:1023D000C4F30251022907D1FF1D27F00707D7E9EF
:1023E0000092083715920BE0002357F8049B1593D1
:1023F000032901D11FFA89F9042901D109F0FF0944
:102400004FF0000B210731D5702804D140208DF802
:102410002000012013E0DDE91201102250400843A2
:102420000ED10023159989EA03005940084307D0CB
:1024300030208DF8200030788DF82100022083466E
:10244000DDE912010822504008430FD100231599FD
:1024500089EA03005940084301D1600706D53020BE
:102460008DF820004FF0010BA8F10108317838A059
:10247000582900D03BA0079012A809900DE0DDE993
:10248000122348461599FFF7F1FA079B81469B5C9A
:10249000099A521E0992137015910023159989EA21
:1024A000030059400843EAD109990AA8401A00F1EB
:1024B0002009600702D524F4803401E04FF00108C0
:1024C0000020C84501DDA8EB090016904844179983
:1024D0005844081A1790E00306D4534621461B9A25
:1024E000179800F0BDF90544002008E008A810F88E
:1024F000080052461B9990476D1C08F10100804668
:102500005845F3DBE0030CD5534621461B9A179838
:1025100000F0A6F9054404E0302052461B9990478C
:102520006D1C1698411E16910028F5DC08E00998EC
:1025300009990078491C099152461B9990476D1CD6
:10254000B9F10000A9F10109F1DC5EE109280100FF
:1025500030313233343536373839414243444546D9
:10256000000000003031323334353637383961629B
:10257000636465660000000000F060F9054449E10D
:10258000600701D44FF00608FF1D27F00707D7E9C1
:102590000001CDE90201002001F00041414008376F
:1025A0004040084301D0A2A007E0A2A0210504D426
:1025B000A1A0E10701D1AFF258000790039820F0E5
:1025C00000413078652828D006DC452825D04628EB
:1025D0003AD0472858D103E0662835D06728F9D18A
:1025E000B8F1010F01DA4FF0010800231122B8F110
:1025F000110F00DC4246CDE900230B460AA912A8C0
:10260000029AFFF7CFFC4FF0000BC146200748D4D9
:10261000149949453CDA084639E000231122B8F103
:10262000110F01DA08F10102CDE900230B460AA9D6
:1026300012A8029AFFF7B6FC012005904FF0000B9C
:1026400008F1010913984BE00123CDE900834FF015
:10265000004004900B460AA912A8029AFFF7A2FCB8
:10266000DDE914904FF0000B20B9139908F1010037
:1026700001EB0009B8EB090003D4C0F1FF3B08F1FE
:102680000109A9EB080005902BE0A9F101008146A2
:10269000B9F1010F05DD1299A9F10100085C30289C
:1026A000F3D01399414503DA084611F1040F03DA18
:1026B00001200590084613E0002804DC13998344A8
:1026C000A9EB010004E0401C484502DD1398401CC2
:1026D00081461399A1EB0B00401C05904FF0004080
:1026E0000490200705D40599494502DB4FF0FF30DF
:1026F000059000218DF8271004980DF12708B0F1FE
:10270000004F29D0022001902B200090049800282F
:102710000EDA404204902D20009009E00A2104982E
:10272000FFF78EF90490A8F1010030318046017066
:102730000198411E01910028F0DC04980028EDD199
:10274000A8F10100009900F801193178804601F0E4
:10275000200141F04501017008A8A0EB0800C01D50
:1027600006900798007800B101200599484400EBD5
:10277000E170069908441799081A401E1790E00363
:1027800006D4534621461B9A179800F069F8054471
:102790000798007818B152461B9990476D1CE003CA
:1027A00022D5534621461B9A179800F059F8054444
:1027B0001AE0BBF1000F07DB1498584504DD1298AE
:1027C0001B9910F80B0001E01B99302052469047EE
:1027D00005986D1C401E0BF1010B059004D12E20B5
:1027E00052461B9990476D1CB9F10000A9F10109EF
:1027F000DFDC05E018F8010B52461B9990476D1C71
:102800000698411E06910028F4DC534621461B9A87
:102810001798B1E6761C307800287FF497AC2846EC
:102820001DB0BDE8F08F52461B9990476D1CF1E733
:102830002D0000002B000000200000002DE9F041D9
:102840000446002517461E46880406D503E039468F
:102850002020B0476D1C641EF9D52846BDE8F081E4
:102860002DE9F04104460025302790461E46C80356
:1028700000D42027880406D403E041463846B047F8
:102880006D1C641EF9D52846BDE8F081AC2800080F
:102890000000002034000000841F0008E028000829
:1028A0003400002004040000941F00080000000011
:1028B00000000000000001020304010203040607F7
:1028C000080902040608000000A24A0400000000F3
:1028D00000000000010203040607080900000000D0
:0400000508000101ED
:00000001FF
